{
  "contractName": "addressSet",
  "abi": [
    {
      "constant": false,
      "inputs": [
        {
          "name": "self",
          "type": "addressSet.Set storage"
        },
        {
          "name": "other",
          "type": "address"
        }
      ],
      "name": "insert",
      "outputs": [],
      "payable": false,
      "stateMutability": "nonpayable",
      "type": "function"
    },
    {
      "constant": false,
      "inputs": [
        {
          "name": "self",
          "type": "addressSet.Set storage"
        },
        {
          "name": "other",
          "type": "address"
        }
      ],
      "name": "remove",
      "outputs": [],
      "payable": false,
      "stateMutability": "nonpayable",
      "type": "function"
    },
    {
      "constant": true,
      "inputs": [
        {
          "name": "self",
          "type": "addressSet.Set storage"
        },
        {
          "name": "other",
          "type": "address"
        }
      ],
      "name": "contains",
      "outputs": [
        {
          "name": "",
          "type": "bool"
        }
      ],
      "payable": false,
      "stateMutability": "view",
      "type": "function"
    },
    {
      "constant": true,
      "inputs": [
        {
          "name": "self",
          "type": "addressSet.Set storage"
        }
      ],
      "name": "length",
      "outputs": [
        {
          "name": "",
          "type": "uint256"
        }
      ],
      "payable": false,
      "stateMutability": "view",
      "type": "function"
    }
  ],
  "bytecode": "0x6106a6610030600b82828239805160001a6073146000811461002057610022565bfe5b5030600052607381538281f3007300000000000000000000000000000000000000003014608060405260043610610079576000357c0100000000000000000000000000000000000000000000000000000000900463ffffffff168063562f29371461007e5780636cc73cea146100cb5780636f0d951a14610118578063e091eaad1461014c575b600080fd5b81801561008a57600080fd5b506100c960048036038101908080359060200190929190803573ffffffffffffffffffffffffffffffffffffffff1690602001909291905050506101a4565b005b8180156100d757600080fd5b5061011660048036038101908080359060200190929190803573ffffffffffffffffffffffffffffffffffffffff1690602001909291905050506103ff565b005b610136600480360381019080803590602001909291905050506104c0565b6040518082815260200191505060405180910390f35b61018a60048036038101908080359060200190929190803573ffffffffffffffffffffffffffffffffffffffff1690602001909291905050506104d1565b604051808215151515815260200191505060405180910390f35b6101ae82826104d1565b156103fb578160000160016101c2846104c0565b038154811015156101cf57fe5b9060005260206000200160009054906101000a900473ffffffffffffffffffffffffffffffffffffffff168260000160018460010160008573ffffffffffffffffffffffffffffffffffffffff1673ffffffffffffffffffffffffffffffffffffffff168152602001908152602001600020540381548110151561024f57fe5b9060005260206000200160006101000a81548173ffffffffffffffffffffffffffffffffffffffff021916908373ffffffffffffffffffffffffffffffffffffffff1602179055508160010160008273ffffffffffffffffffffffffffffffffffffffff1673ffffffffffffffffffffffffffffffffffffffff168152602001908152602001600020548260010160008460000160018660010160008773ffffffffffffffffffffffffffffffffffffffff1673ffffffffffffffffffffffffffffffffffffffff168152602001908152602001600020540381548110151561033457fe5b9060005260206000200160009054906101000a900473ffffffffffffffffffffffffffffffffffffffff1673ffffffffffffffffffffffffffffffffffffffff1673ffffffffffffffffffffffffffffffffffffffff168152602001908152602001600020819055508160010160008273ffffffffffffffffffffffffffffffffffffffff1673ffffffffffffffffffffffffffffffffffffffff16815260200190815260200160002060009055816000018054809190600190036103f99190610629565b505b5050565b61040982826104d1565b15156104bc57816000018190806001815401808255809150509060018203906000526020600020016000909192909190916101000a81548173ffffffffffffffffffffffffffffffffffffffff021916908373ffffffffffffffffffffffffffffffffffffffff1602179055508260010160008373ffffffffffffffffffffffffffffffffffffffff1673ffffffffffffffffffffffffffffffffffffffff168152602001908152602001600020819055505b5050565b600081600001805490509050919050565b6000808360010160008473ffffffffffffffffffffffffffffffffffffffff1673ffffffffffffffffffffffffffffffffffffffff1681526020019081526020016000205411801561056b57508260010160008373ffffffffffffffffffffffffffffffffffffffff1673ffffffffffffffffffffffffffffffffffffffff16815260200190815260200160002054836000018054905010155b801561062157508173ffffffffffffffffffffffffffffffffffffffff168360000160018560010160008673ffffffffffffffffffffffffffffffffffffffff1673ffffffffffffffffffffffffffffffffffffffff16815260200190815260200160002054038154811015156105de57fe5b9060005260206000200160009054906101000a900473ffffffffffffffffffffffffffffffffffffffff1673ffffffffffffffffffffffffffffffffffffffff16145b905092915050565b8154818355818111156106505781836000526020600020918201910161064f9190610655565b5b505050565b61067791905b8082111561067357600081600090555060010161065b565b5090565b905600a165627a7a72305820225b9531e1aacff0bf0f6f79ef0059a570e4c28fdb0f29501eb10aa90d121eb00029",
  "source": "pragma solidity ^0.4.24;\n\n/// @title An implementation of the set data structure for addresses.\n/// @author Noah Zinsmeister\n/// @dev O(1) insertion, removal, contains, and length functions.\nlibrary addressSet {\n    struct Set {\n        address[] members;\n        mapping(address => uint) memberIndices;\n    }\n\n    /// @dev Inserts an element into a set. If the element already exists in the set, the function is a no-op.\n    /// @param self The set to insert into.\n    /// @param other The element to insert.\n    function insert(Set storage self, address other) public {\n        if (!contains(self, other)) {\n            self.memberIndices[other] = self.members.push(other);\n        }\n    }\n\n    /// @dev Removes an element from a set. If the element does not exist in the set, the function is a no-op.\n    /// @param self The set to remove from.\n    /// @param other The element to remove.\n    function remove(Set storage self, address other) public {\n        if (contains(self, other)) {\n            // replace other with the last element\n            self.members[self.memberIndices[other] - 1] = self.members[length(self) - 1];\n            // reflect this change in the indices\n            self.memberIndices[self.members[self.memberIndices[other] - 1]] = self.memberIndices[other];\n            delete self.memberIndices[other];\n            // remove the last element\n            self.members.length--;\n        }\n    }\n\n    /// @dev Checks set membership.\n    /// @param self The set to check membership in.\n    /// @param other The element to check membership of.\n    /// @return true if the element is in the set, false otherwise.\n    function contains(Set storage self, address other) public view returns (bool) {\n        return ( // solium-disable-line operator-whitespace\n            self.memberIndices[other] > 0 &&\n            self.members.length >= self.memberIndices[other] &&\n            self.members[self.memberIndices[other] - 1] == other\n        );\n    }\n\n    /// @dev Returns the number of elements in a set.\n    /// @param self The set to check the length of.\n    /// @return The number of elements in the set.\n    function length(Set storage self) public view returns (uint) {\n        return self.members.length;\n    }\n}\n",
  "sourcePath": "/Users/sxg/Desktop/mvp/contracts/addressSet.sol",
  "compiler": {
    "name": "solc",
    "version": "0.4.25+commit.59dbf8f1.Emscripten.clang"
  },
  "schemaVersion": "2.0.2",
  "updatedAt": "2019-04-11T23:57:28.105Z"
}