{
  "contractName": "communalValidation",
  "abi": [
    {
      "constant": true,
      "inputs": [],
      "name": "_admin",
      "outputs": [
        {
          "name": "",
          "type": "address"
        }
      ],
      "payable": false,
      "stateMutability": "view",
      "type": "function"
    },
    {
      "constant": true,
      "inputs": [],
      "name": "_live",
      "outputs": [
        {
          "name": "",
          "type": "bytes32"
        }
      ],
      "payable": false,
      "stateMutability": "view",
      "type": "function"
    },
    {
      "constant": true,
      "inputs": [],
      "name": "_round",
      "outputs": [
        {
          "name": "",
          "type": "uint256"
        }
      ],
      "payable": false,
      "stateMutability": "view",
      "type": "function"
    },
    {
      "constant": false,
      "inputs": [
        {
          "name": "_source",
          "type": "address"
        }
      ],
      "name": "initialiseAsset",
      "outputs": [],
      "payable": false,
      "stateMutability": "nonpayable",
      "type": "function"
    },
    {
      "constant": true,
      "inputs": [],
      "name": "currentEvent",
      "outputs": [
        {
          "name": "subject",
          "type": "bytes32"
        }
      ],
      "payable": false,
      "stateMutability": "view",
      "type": "function"
    },
    {
      "constant": true,
      "inputs": [],
      "name": "currentRound",
      "outputs": [
        {
          "name": "round",
          "type": "uint256"
        }
      ],
      "payable": false,
      "stateMutability": "view",
      "type": "function"
    },
    {
      "constant": true,
      "inputs": [
        {
          "name": "_voter",
          "type": "address"
        }
      ],
      "name": "isVoted",
      "outputs": [
        {
          "name": "",
          "type": "bool"
        }
      ],
      "payable": false,
      "stateMutability": "view",
      "type": "function"
    },
    {
      "constant": true,
      "inputs": [
        {
          "name": "_entity",
          "type": "bytes32"
        },
        {
          "name": "_index",
          "type": "uint256"
        }
      ],
      "name": "eventType",
      "outputs": [
        {
          "name": "class",
          "type": "bytes32"
        }
      ],
      "payable": false,
      "stateMutability": "view",
      "type": "function"
    },
    {
      "constant": true,
      "inputs": [
        {
          "name": "_entity",
          "type": "bytes32"
        },
        {
          "name": "_index",
          "type": "uint256"
        }
      ],
      "name": "eventPositive",
      "outputs": [
        {
          "name": "positive",
          "type": "uint256"
        }
      ],
      "payable": false,
      "stateMutability": "view",
      "type": "function"
    },
    {
      "constant": true,
      "inputs": [
        {
          "name": "_entity",
          "type": "bytes32"
        },
        {
          "name": "_index",
          "type": "uint256"
        }
      ],
      "name": "eventNegative",
      "outputs": [
        {
          "name": "negative",
          "type": "uint256"
        }
      ],
      "payable": false,
      "stateMutability": "view",
      "type": "function"
    },
    {
      "constant": true,
      "inputs": [
        {
          "name": "_entity",
          "type": "bytes32"
        },
        {
          "name": "_index",
          "type": "uint256"
        }
      ],
      "name": "eventNeutral",
      "outputs": [
        {
          "name": "neutral",
          "type": "uint256"
        }
      ],
      "payable": false,
      "stateMutability": "view",
      "type": "function"
    },
    {
      "constant": false,
      "inputs": [
        {
          "name": "_entity",
          "type": "bytes32"
        },
        {
          "name": "_tick",
          "type": "bytes32"
        },
        {
          "name": "_asset",
          "type": "bytes32"
        },
        {
          "name": "_index",
          "type": "uint256"
        }
      ],
      "name": "createEvent",
      "outputs": [],
      "payable": false,
      "stateMutability": "nonpayable",
      "type": "function"
    },
    {
      "constant": false,
      "inputs": [
        {
          "name": "_choice",
          "type": "bytes32"
        }
      ],
      "name": "voteSubmit",
      "outputs": [],
      "payable": false,
      "stateMutability": "nonpayable",
      "type": "function"
    },
    {
      "constant": true,
      "inputs": [
        {
          "name": "_id",
          "type": "bytes"
        },
        {
          "name": "_voter",
          "type": "address"
        }
      ],
      "name": "votingWeight",
      "outputs": [
        {
          "name": "stake",
          "type": "uint256"
        }
      ],
      "payable": false,
      "stateMutability": "view",
      "type": "function"
    }
  ],
  "bytecode": "0x608060405233600260006101000a81548173ffffffffffffffffffffffffffffffffffffffff021916908373ffffffffffffffffffffffffffffffffffffffff16021790555034801561005157600080fd5b506117de806100616000396000f3006080604052600436106100d0576000357c0100000000000000000000000000000000000000000000000000000000900463ffffffff16806301bc45c9146100d5578063242556941461012c57806350750f251461016f57806354719fb9146101a257806356e0ec72146101f15780635c3794cc1461022457806367bd96db1461027b57806372923e13146102ca5780638a19c8bc146102fb5780639a15a9c014610326578063a7e9815b14610375578063a876a8a014610412578063bc7b9c591461043d578063cbff75cb14610494575b600080fd5b3480156100e157600080fd5b506100ea6104ef565b604051808273ffffffffffffffffffffffffffffffffffffffff1673ffffffffffffffffffffffffffffffffffffffff16815260200191505060405180910390f35b34801561013857600080fd5b5061016d600480360381019080803573ffffffffffffffffffffffffffffffffffffffff169060200190929190505050610515565b005b34801561017b57600080fd5b506101846105b5565b60405180826000191660001916815260200191505060405180910390f35b3480156101ae57600080fd5b506101db6004803603810190808035600019169060200190929190803590602001909291905050506105bf565b6040518082815260200191505060405180910390f35b3480156101fd57600080fd5b506102066105fc565b60405180826000191660001916815260200191505060405180910390f35b34801561023057600080fd5b5061025d600480360381019080803560001916906020019092919080359060200190929190505050610602565b60405180826000191660001916815260200191505060405180910390f35b34801561028757600080fd5b506102b460048036038101908080356000191690602001909291908035906020019092919050505061063b565b6040518082815260200191505060405180910390f35b3480156102d657600080fd5b506102f96004803603810190808035600019169060200190929190505050610678565b005b34801561030757600080fd5b50610310611139565b6040518082815260200191505060405180910390f35b34801561033257600080fd5b5061035f600480360381019080803560001916906020019092919080359060200190929190505050611143565b6040518082815260200191505060405180910390f35b34801561038157600080fd5b506103fc600480360381019080803590602001908201803590602001908080601f0160208091040260200160405190810160405280939291908181526020018383808284378201915050505050509192919290803573ffffffffffffffffffffffffffffffffffffffff169060200190929190505050611180565b6040518082815260200191505060405180910390f35b34801561041e57600080fd5b50610427611536565b6040518082815260200191505060405180910390f35b34801561044957600080fd5b506104926004803603810190808035600019169060200190929190803560001916906020019092919080356000191690602001909291908035906020019092919050505061153c565b005b3480156104a057600080fd5b506104d5600480360381019080803573ffffffffffffffffffffffffffffffffffffffff169060200190929190505050611651565b604051808215151515815260200191505060405180910390f35b600260009054906101000a900473ffffffffffffffffffffffffffffffffffffffff1681565b600260009054906101000a900473ffffffffffffffffffffffffffffffffffffffff1673ffffffffffffffffffffffffffffffffffffffff163373ffffffffffffffffffffffffffffffffffffffff1614151561057157600080fd5b80600360006101000a81548173ffffffffffffffffffffffffffffffffffffffff021916908373ffffffffffffffffffffffffffffffffffffffff16021790555050565b6000600454905090565b6000806000846000191660001916815260200190815260200160002060008381526020019081526020016000206004015460019004905092915050565b60045481565b60008060008460001916600019168152602001908152602001600020600083815260200190815260200160002060030154905092915050565b6000806000846000191660001916815260200190815260200160002060008381526020019081526020016000206005015460019004905092915050565b6060600033600080600454600019166000191681526020019081526020016000206000600554815260200190815260200160002060000173__addressSet____________________________63e091eaad9091836040518363ffffffff167c0100000000000000000000000000000000000000000000000000000000028152600401808381526020018273ffffffffffffffffffffffffffffffffffffffff1673ffffffffffffffffffffffffffffffffffffffff1681526020019250505060206040518083038186803b15801561074f57600080fd5b505af4158015610763573d6000803e3d6000fd5b505050506040513d602081101561077957600080fd5b810190808051906020019092919050505015801561088b5750600360009054906101000a900473ffffffffffffffffffffffffffffffffffffffff1673ffffffffffffffffffffffffffffffffffffffff16636f49712b826040518263ffffffff167c0100000000000000000000000000000000000000000000000000000000028152600401808273ffffffffffffffffffffffffffffffffffffffff1673ffffffffffffffffffffffffffffffffffffffff168152602001915050602060405180830381600087803b15801561084f57600080fd5b505af1158015610863573d6000803e3d6000fd5b505050506040513d602081101561087957600080fd5b81019080805190602001909291905050505b801561098b5750600360009054906101000a900473ffffffffffffffffffffffffffffffffffffffff1673ffffffffffffffffffffffffffffffffffffffff16639f8a13d7826040518263ffffffff167c0100000000000000000000000000000000000000000000000000000000028152600401808273ffffffffffffffffffffffffffffffffffffffff1673ffffffffffffffffffffffffffffffffffffffff168152602001915050602060405180830381600087803b15801561094f57600080fd5b505af1158015610963573d6000803e3d6000fd5b505050506040513d602081101561097957600080fd5b81019080805190602001909291905050505b151561099657600080fd5b600080600454600019166000191681526020019081526020016000206000600554815260200190815260200160002060000173__addressSet____________________________636cc73cea9091336040518363ffffffff167c0100000000000000000000000000000000000000000000000000000000028152600401808381526020018273ffffffffffffffffffffffffffffffffffffffff1673ffffffffffffffffffffffffffffffffffffffff1681526020019250505060006040518083038186803b158015610a6857600080fd5b505af4158015610a7c573d6000803e3d6000fd5b50505050600360009054906101000a900473ffffffffffffffffffffffffffffffffffffffff1673ffffffffffffffffffffffffffffffffffffffff1663fe130208336040518263ffffffff167c0100000000000000000000000000000000000000000000000000000000028152600401808273ffffffffffffffffffffffffffffffffffffffff1673ffffffffffffffffffffffffffffffffffffffff168152602001915050600060405180830381600087803b158015610b3d57600080fd5b505af1158015610b51573d6000803e3d6000fd5b505050506040513d6000823e3d601f19601f820116820180604052506020811015610b7b57600080fd5b810190808051640100000000811115610b9357600080fd5b82810190506020810184811115610ba957600080fd5b8151856001820283011164010000000082111715610bc657600080fd5b50509291905050509250610bda8333611180565b91507f506f7369746976650000000000000000000000000000000000000000000000006001026000191684600019161415610c7157610c2f82610c216004546005546105bf565b61176790919063ffffffff16565b60010260008060045460001916600019168152602001908152602001600020600060055481526020019081526020016000206004018160001916905550610d99565b7f4e65757472616c000000000000000000000000000000000000000000000000006001026000191684600019161415610d0657610cc482610cb6600454600554611143565b61176790919063ffffffff16565b60010260008060045460001916600019168152602001908152602001600020600060055481526020019081526020016000206006018160001916905550610d98565b7f4e656761746976650000000000000000000000000000000000000000000000006001026000191684600019161415610d9757610d5982610d4b60045460055461063b565b61176790919063ffffffff16565b600102600080600454600019166000191681526020019081526020016000206000600554815260200190815260200160002060050181600019169055505b5b5b600360009054906101000a900473ffffffffffffffffffffffffffffffffffffffff1673ffffffffffffffffffffffffffffffffffffffff16632092c32b8460045487866040518563ffffffff167c0100000000000000000000000000000000000000000000000000000000028152600401808060200185600019166000191681526020018460001916600019168152602001838152602001828103825286818151815260200191508051906020019080838360005b83811015610e6a578082015181840152602081019050610e4f565b50505050905090810190601f168015610e975780820380516001836020036101000a031916815260200191505b5095505050505050600060405180830381600087803b158015610eb957600080fd5b505af1158015610ecd573d6000803e3d6000fd5b50505050600360009054906101000a900473ffffffffffffffffffffffffffffffffffffffff1673ffffffffffffffffffffffffffffffffffffffff1663f734ab4c843369021e19e0c9bab24000006040518463ffffffff167c010000000000000000000000000000000000000000000000000000000002815260040180806020018473ffffffffffffffffffffffffffffffffffffffff1673ffffffffffffffffffffffffffffffffffffffff168152602001838152602001828103825285818151815260200191508051906020019080838360005b83811015610fbf578082015181840152602081019050610fa4565b50505050905090810190601f168015610fec5780820380516001836020036101000a031916815260200191505b50945050505050600060405180830381600087803b15801561100d57600080fd5b505af1158015611021573d6000803e3d6000fd5b50505050600360009054906101000a900473ffffffffffffffffffffffffffffffffffffffff1673ffffffffffffffffffffffffffffffffffffffff16632f7ba5ec846040518263ffffffff167c01000000000000000000000000000000000000000000000000000000000281526004018080602001828103825283818151815260200191508051906020019080838360005b838110156110cf5780820151818401526020810190506110b4565b50505050905090810190601f1680156110fc5780820380516001836020036101000a031916815260200191505b5092505050600060405180830381600087803b15801561111b57600080fd5b505af115801561112f573d6000803e3d6000fd5b5050505050505050565b6000600554905090565b6000806000846000191660001916815260200190815260200160002060008381526020019081526020016000206006015460019004905092915050565b60008060008069021e19e0c9bab2400000600360009054906101000a900473ffffffffffffffffffffffffffffffffffffffff1673ffffffffffffffffffffffffffffffffffffffff166370a08231876040518263ffffffff167c0100000000000000000000000000000000000000000000000000000000028152600401808273ffffffffffffffffffffffffffffffffffffffff1673ffffffffffffffffffffffffffffffffffffffff168152602001915050602060405180830381600087803b15801561124e57600080fd5b505af1158015611262573d6000803e3d6000fd5b505050506040513d602081101561127857600080fd5b81019080805190602001909291905050501015151561129657600080fd5b600360009054906101000a900473ffffffffffffffffffffffffffffffffffffffff1673ffffffffffffffffffffffffffffffffffffffff166370a08231866040518263ffffffff167c0100000000000000000000000000000000000000000000000000000000028152600401808273ffffffffffffffffffffffffffffffffffffffff1673ffffffffffffffffffffffffffffffffffffffff168152602001915050602060405180830381600087803b15801561135357600080fd5b505af1158015611367573d6000803e3d6000fd5b505050506040513d602081101561137d57600080fd5b81019080805190602001909291905050509250600360009054906101000a900473ffffffffffffffffffffffffffffffffffffffff1673ffffffffffffffffffffffffffffffffffffffff16635f17d2c6876040518263ffffffff167c01000000000000000000000000000000000000000000000000000000000281526004018080602001828103825283818151815260200191508051906020019080838360005b8381101561143a57808201518184015260208101905061141f565b50505050905090810190601f1680156114675780820380516001836020036101000a031916815260200191505b5092505050602060405180830381600087803b15801561148657600080fd5b505af115801561149a573d6000803e3d6000fd5b505050506040513d60208110156114b057600080fd5b8101908080519060200190929190505050915060008214156114d6576109c4905061150e565b60008211156114e957611388905061150d565b60058211156114fc57611d4c905061150c565b600a82111561150b5761271090505b5b5b5b61152b69021e19e0c9bab24000008461178890919063ffffffff16565b935050505092915050565b60055481565b600260009054906101000a900473ffffffffffffffffffffffffffffffffffffffff1673ffffffffffffffffffffffffffffffffffffffff163373ffffffffffffffffffffffffffffffffffffffff1614151561159857600080fd5b82600080866000191660001916815260200190815260200160002060008381526020019081526020016000206002018160001916905550816000808660001916600019168152602001908152602001600020600083815260200190815260200160002060030181600019169055506001806000866000191660001916815260200190815260200160002060006101000a81548160ff02191690831515021790555083600481600019169055508060058190555050505050565b6000806000600454600019166000191681526020019081526020016000206000600554815260200190815260200160002060000173__addressSet____________________________63e091eaad9091846040518363ffffffff167c0100000000000000000000000000000000000000000000000000000000028152600401808381526020018273ffffffffffffffffffffffffffffffffffffffff1673ffffffffffffffffffffffffffffffffffffffff1681526020019250505060206040518083038186803b15801561172557600080fd5b505af4158015611739573d6000803e3d6000fd5b505050506040513d602081101561174f57600080fd5b81019080805190602001909291905050509050919050565b600080828401905083811015151561177e57600080fd5b8091505092915050565b60008060008311151561179a57600080fd5b82848115156117a557fe5b04905080915050929150505600a165627a7a7230582080f7833f2712f21a9adc4d70240ef8ecc296b0ec2d6d35971fd9cd62eb5871ed0029",
  "source": "pragma solidity ^0.4.24;\n\nimport \"./addressSet.sol\";\nimport \"./ERC20d.sol\";\n\ncontract communalValidation {\n\n  using addressSet for addressSet.Set;\n  using SafeMath for uint;\n\n  bytes32 constant POS = 0x506f736974697665000000000000000000000000000000000000000000000000;\n  bytes32 constant NEU = 0x4e65757472616c00000000000000000000000000000000000000000000000000;\n  bytes32 constant NEG = 0x4e65676174697665000000000000000000000000000000000000000000000000;\n\n  uint constant VOTE = 10000000000000000000000;\n\n  struct _validation {\n\n      addressSet.Set _delegates;\n      bytes32 _ticker;\n      bytes32 _type;\n      bytes32 _positive;\n      bytes32 _negative;\n      bytes32 _neutral;\n      bytes32 _rounds;\n      bytes32 _result;\n\n  }\n\n  mapping(bytes32 => mapping (uint => _validation)) private _event;\n  mapping(bytes32 => bool) private _active;\n\n  address public _admin  = msg.sender;\n  ERC20d private _VLDY;\n  bytes32 public _live;\n  uint public _round;\n\n  modifier _delegateCheck(address _account) {\n    require(!_event[_live][_round]._delegates.contains(_account)\n            && _VLDY.isStaking(_account)\n            && _VLDY.isActive(_account));\n    _;\n  }\n\n  modifier _onlyAdmin() {\n      require(msg.sender == _admin);\n      _;\n  }\n\n  function initialiseAsset(address _source) _onlyAdmin public {\n      _VLDY = ERC20d(_source);\n  }\n\n  function currentEvent() public view returns (bytes32 subject) {\n      subject = _live;\n   }\n\n  function currentRound() public view returns (uint round) {\n      round = _round;\n  }\n\n  function isVoted(address _voter) public view returns (bool) {\n      return _event[_live][_round]._delegates.contains(_voter);\n  }\n\n  function eventType(bytes32 _entity, uint _index) public view returns (bytes32 class) {\n      class = _event[_entity][_index]._type;\n  }\n\n  function eventPositive(bytes32 _entity, uint _index) public view returns (uint positive) {\n      positive = uint(_event[_entity][_index]._positive);\n  }\n\n  function eventNegative(bytes32 _entity, uint _index) public view returns (uint negative) {\n      negative = uint(_event[_entity][_index]._negative);\n  }\n\n  function eventNeutral(bytes32 _entity, uint _index) public view returns (uint neutral) {\n      neutral = uint(_event[_entity][_index]._neutral);\n  }\n\n  function createEvent(bytes32 _entity, bytes32 _tick, bytes32 _asset, uint _index) public _onlyAdmin\n  {\n      _event[_entity][_index]._ticker = _tick;\n      _event[_entity][_index]._type = _asset;\n      _active[_entity] = true;\n      _live = _entity;\n      _round = _index;\n  }\n\n  function voteSubmit(bytes32 _choice) _delegateCheck(msg.sender) public {\n      _event[_live][_round]._delegates.insert(msg.sender);\n      bytes memory id = _VLDY.getvID(msg.sender);\n      uint weight = votingWeight(id, msg.sender);\n\n      if(_choice == POS) {\n        _event[_live][_round]._positive = bytes32(eventPositive(_live, _round).add(weight));\n      } else if(_choice == NEU) {\n        _event[_live][_round]._neutral = bytes32(eventNeutral(_live, _round).add(weight));\n      } else if(_choice == NEG) {\n        _event[_live][_round]._negative = bytes32(eventNegative(_live, _round).add(weight));\n      }\n\n      _VLDY.delegationEvent(id, _live, _choice, weight);\n      _VLDY.delegationReward(id, msg.sender, VOTE);\n      _VLDY.increaseTrust(id);\n  }\n\n  function votingWeight(bytes _id, address _voter) public view returns (uint stake) {\n      require(_VLDY.balanceOf(_voter) >= VOTE);\n\n      uint wager = _VLDY.balanceOf(_voter);\n      uint trust = _VLDY.trustLevel(_id);\n      uint weightUsage;\n\n      if(trust == 0){\n        weightUsage = 2500;\n      } else if(trust > 0) {\n        weightUsage = 5000;\n      } else if(trust > 5) {\n        weightUsage = 7500;\n      } else if(trust > 10) {\n        weightUsage = 10000;\n      }\n\n      stake = wager.div(VOTE);\n  }\n\n}\n",
  "sourcePath": "/Users/sxg/Desktop/mvp/contracts/communalValidation.sol",
  "compiler": {
    "name": "solc",
    "version": "0.4.25+commit.59dbf8f1.Emscripten.clang"
  },
  "schemaVersion": "2.0.2",
  "updatedAt": "2019-04-10T09:31:48.551Z"
}