{
  "contractName": "communalValidation",
  "abi": [
    {
      "constant": true,
      "inputs": [],
      "name": "_admin",
      "outputs": [
        {
          "name": "",
          "type": "address"
        }
      ],
      "payable": false,
      "stateMutability": "view",
      "type": "function"
    },
    {
      "constant": true,
      "inputs": [],
      "name": "_live",
      "outputs": [
        {
          "name": "",
          "type": "bytes32"
        }
      ],
      "payable": false,
      "stateMutability": "view",
      "type": "function"
    },
    {
      "constant": true,
      "inputs": [],
      "name": "_round",
      "outputs": [
        {
          "name": "",
          "type": "uint256"
        }
      ],
      "payable": false,
      "stateMutability": "view",
      "type": "function"
    },
    {
      "constant": false,
      "inputs": [
        {
          "name": "_source",
          "type": "address"
        }
      ],
      "name": "initialiseAsset",
      "outputs": [],
      "payable": false,
      "stateMutability": "nonpayable",
      "type": "function"
    },
    {
      "constant": true,
      "inputs": [],
      "name": "currentEvent",
      "outputs": [
        {
          "name": "subject",
          "type": "bytes32"
        }
      ],
      "payable": false,
      "stateMutability": "view",
      "type": "function"
    },
    {
      "constant": true,
      "inputs": [],
      "name": "currentRound",
      "outputs": [
        {
          "name": "round",
          "type": "uint256"
        }
      ],
      "payable": false,
      "stateMutability": "view",
      "type": "function"
    },
    {
      "constant": true,
      "inputs": [
        {
          "name": "_voter",
          "type": "address"
        }
      ],
      "name": "isVoted",
      "outputs": [
        {
          "name": "",
          "type": "bool"
        }
      ],
      "payable": false,
      "stateMutability": "view",
      "type": "function"
    },
    {
      "constant": true,
      "inputs": [
        {
          "name": "_entity",
          "type": "bytes32"
        },
        {
          "name": "_index",
          "type": "uint256"
        }
      ],
      "name": "eventTicker",
      "outputs": [
        {
          "name": "ticker",
          "type": "bytes32"
        }
      ],
      "payable": false,
      "stateMutability": "view",
      "type": "function"
    },
    {
      "constant": true,
      "inputs": [
        {
          "name": "_entity",
          "type": "bytes32"
        },
        {
          "name": "_index",
          "type": "uint256"
        }
      ],
      "name": "eventType",
      "outputs": [
        {
          "name": "class",
          "type": "bytes32"
        }
      ],
      "payable": false,
      "stateMutability": "view",
      "type": "function"
    },
    {
      "constant": true,
      "inputs": [
        {
          "name": "_entity",
          "type": "bytes32"
        },
        {
          "name": "_index",
          "type": "uint256"
        }
      ],
      "name": "eventPositive",
      "outputs": [
        {
          "name": "positive",
          "type": "uint256"
        }
      ],
      "payable": false,
      "stateMutability": "view",
      "type": "function"
    },
    {
      "constant": true,
      "inputs": [
        {
          "name": "_entity",
          "type": "bytes32"
        },
        {
          "name": "_index",
          "type": "uint256"
        }
      ],
      "name": "eventNegative",
      "outputs": [
        {
          "name": "negative",
          "type": "uint256"
        }
      ],
      "payable": false,
      "stateMutability": "view",
      "type": "function"
    },
    {
      "constant": true,
      "inputs": [
        {
          "name": "_entity",
          "type": "bytes32"
        },
        {
          "name": "_index",
          "type": "uint256"
        }
      ],
      "name": "eventNeutral",
      "outputs": [
        {
          "name": "neutral",
          "type": "uint256"
        }
      ],
      "payable": false,
      "stateMutability": "view",
      "type": "function"
    },
    {
      "constant": false,
      "inputs": [
        {
          "name": "_entity",
          "type": "bytes32"
        },
        {
          "name": "_tick",
          "type": "bytes32"
        },
        {
          "name": "_asset",
          "type": "bytes32"
        },
        {
          "name": "_index",
          "type": "uint256"
        }
      ],
      "name": "createEvent",
      "outputs": [],
      "payable": false,
      "stateMutability": "nonpayable",
      "type": "function"
    },
    {
      "constant": false,
      "inputs": [
        {
          "name": "_choice",
          "type": "bytes32"
        }
      ],
      "name": "voteSubmit",
      "outputs": [],
      "payable": false,
      "stateMutability": "nonpayable",
      "type": "function"
    },
    {
      "constant": true,
      "inputs": [
        {
          "name": "_voter",
          "type": "address"
        }
      ],
      "name": "votingWeight",
      "outputs": [
        {
          "name": "stake",
          "type": "uint256"
        }
      ],
      "payable": false,
      "stateMutability": "view",
      "type": "function"
    }
  ],
  "bytecode": "0x608060405233600260006101000a81548173ffffffffffffffffffffffffffffffffffffffff021916908373ffffffffffffffffffffffffffffffffffffffff16021790555034801561005157600080fd5b5061155a806100616000396000f3006080604052600436106100db576000357c0100000000000000000000000000000000000000000000000000000000900463ffffffff16806301bc45c9146100e0578063242556941461013757806350750f251461017a57806354719fb9146101ad57806356e0ec72146101fc5780635c3794cc1461022f57806367bd96db1461028657806372923e13146102d55780638a19c8bc146103065780639a15a9c014610331578063a876a8a014610380578063bc7b9c59146103ab578063c47b351114610402578063cbff75cb14610459578063cc2b7d67146104b4575b600080fd5b3480156100ec57600080fd5b506100f561050b565b604051808273ffffffffffffffffffffffffffffffffffffffff1673ffffffffffffffffffffffffffffffffffffffff16815260200191505060405180910390f35b34801561014357600080fd5b50610178600480360381019080803573ffffffffffffffffffffffffffffffffffffffff169060200190929190505050610531565b005b34801561018657600080fd5b5061018f6105d1565b60405180826000191660001916815260200191505060405180910390f35b3480156101b957600080fd5b506101e66004803603810190808035600019169060200190929190803590602001909291905050506105db565b6040518082815260200191505060405180910390f35b34801561020857600080fd5b50610211610618565b60405180826000191660001916815260200191505060405180910390f35b34801561023b57600080fd5b5061026860048036038101908080356000191690602001909291908035906020019092919050505061061e565b60405180826000191660001916815260200191505060405180910390f35b34801561029257600080fd5b506102bf600480360381019080803560001916906020019092919080359060200190929190505050610657565b6040518082815260200191505060405180910390f35b3480156102e157600080fd5b506103046004803603810190808035600019169060200190929190505050610694565b005b34801561031257600080fd5b5061031b611000565b6040518082815260200191505060405180910390f35b34801561033d57600080fd5b5061036a60048036038101908080356000191690602001909291908035906020019092919050505061100a565b6040518082815260200191505060405180910390f35b34801561038c57600080fd5b50610395611047565b6040518082815260200191505060405180910390f35b3480156103b757600080fd5b506104006004803603810190808035600019169060200190929190803560001916906020019092919080356000191690602001909291908035906020019092919050505061104d565b005b34801561040e57600080fd5b50610443600480360381019080803573ffffffffffffffffffffffffffffffffffffffff169060200190929190505050611162565b6040518082815260200191505060405180910390f35b34801561046557600080fd5b5061049a600480360381019080803573ffffffffffffffffffffffffffffffffffffffff169060200190929190505050611394565b604051808215151515815260200191505060405180910390f35b3480156104c057600080fd5b506104ed6004803603810190808035600019169060200190929190803590602001909291905050506114aa565b60405180826000191660001916815260200191505060405180910390f35b600260009054906101000a900473ffffffffffffffffffffffffffffffffffffffff1681565b600260009054906101000a900473ffffffffffffffffffffffffffffffffffffffff1673ffffffffffffffffffffffffffffffffffffffff163373ffffffffffffffffffffffffffffffffffffffff1614151561058d57600080fd5b80600360006101000a81548173ffffffffffffffffffffffffffffffffffffffff021916908373ffffffffffffffffffffffffffffffffffffffff16021790555050565b6000600454905090565b6000806000846000191660001916815260200190815260200160002060008381526020019081526020016000206004015460019004905092915050565b60045481565b60008060008460001916600019168152602001908152602001600020600083815260200190815260200160002060030154905092915050565b6000806000846000191660001916815260200190815260200160002060008381526020019081526020016000206005015460019004905092915050565b6060600033600080600454600019166000191681526020019081526020016000206000600554815260200190815260200160002060000173__addressSet____________________________63e091eaad9091836040518363ffffffff167c0100000000000000000000000000000000000000000000000000000000028152600401808381526020018273ffffffffffffffffffffffffffffffffffffffff1673ffffffffffffffffffffffffffffffffffffffff1681526020019250505060206040518083038186803b15801561076b57600080fd5b505af415801561077f573d6000803e3d6000fd5b505050506040513d602081101561079557600080fd5b81019080805190602001909291905050501580156108a75750600360009054906101000a900473ffffffffffffffffffffffffffffffffffffffff1673ffffffffffffffffffffffffffffffffffffffff16636f49712b826040518263ffffffff167c0100000000000000000000000000000000000000000000000000000000028152600401808273ffffffffffffffffffffffffffffffffffffffff1673ffffffffffffffffffffffffffffffffffffffff168152602001915050602060405180830381600087803b15801561086b57600080fd5b505af115801561087f573d6000803e3d6000fd5b505050506040513d602081101561089557600080fd5b81019080805190602001909291905050505b80156109a75750600360009054906101000a900473ffffffffffffffffffffffffffffffffffffffff1673ffffffffffffffffffffffffffffffffffffffff16639f8a13d7826040518263ffffffff167c0100000000000000000000000000000000000000000000000000000000028152600401808273ffffffffffffffffffffffffffffffffffffffff1673ffffffffffffffffffffffffffffffffffffffff168152602001915050602060405180830381600087803b15801561096b57600080fd5b505af115801561097f573d6000803e3d6000fd5b505050506040513d602081101561099557600080fd5b81019080805190602001909291905050505b15156109b257600080fd5b600080600454600019166000191681526020019081526020016000206000600554815260200190815260200160002060000173__addressSet____________________________636cc73cea9091336040518363ffffffff167c0100000000000000000000000000000000000000000000000000000000028152600401808381526020018273ffffffffffffffffffffffffffffffffffffffff1673ffffffffffffffffffffffffffffffffffffffff1681526020019250505060006040518083038186803b158015610a8457600080fd5b505af4158015610a98573d6000803e3d6000fd5b50505050600360009054906101000a900473ffffffffffffffffffffffffffffffffffffffff1673ffffffffffffffffffffffffffffffffffffffff1663fe130208336040518263ffffffff167c0100000000000000000000000000000000000000000000000000000000028152600401808273ffffffffffffffffffffffffffffffffffffffff1673ffffffffffffffffffffffffffffffffffffffff168152602001915050600060405180830381600087803b158015610b5957600080fd5b505af1158015610b6d573d6000803e3d6000fd5b505050506040513d6000823e3d601f19601f820116820180604052506020811015610b9757600080fd5b810190808051640100000000811115610baf57600080fd5b82810190506020810184811115610bc557600080fd5b8151856001820283011164010000000082111715610be257600080fd5b50509291905050509250610bf533611162565b91507f506f7369746976650000000000000000000000000000000000000000000000006001026000191684600019161415610c8c57610c4a82610c3c6004546005546105db565b6114e390919063ffffffff16565b60010260008060045460001916600019168152602001908152602001600020600060055481526020019081526020016000206004018160001916905550610db4565b7f4e65757472616c000000000000000000000000000000000000000000000000006001026000191684600019161415610d2157610cdf82610cd160045460055461100a565b6114e390919063ffffffff16565b60010260008060045460001916600019168152602001908152602001600020600060055481526020019081526020016000206006018160001916905550610db3565b7f4e656761746976650000000000000000000000000000000000000000000000006001026000191684600019161415610db257610d7482610d66600454600554610657565b6114e390919063ffffffff16565b600102600080600454600019166000191681526020019081526020016000206000600554815260200190815260200160002060050181600019169055505b5b5b600360009054906101000a900473ffffffffffffffffffffffffffffffffffffffff1673ffffffffffffffffffffffffffffffffffffffff16632092c32b8460045487866040518563ffffffff167c0100000000000000000000000000000000000000000000000000000000028152600401808060200185600019166000191681526020018460001916600019168152602001838152602001828103825286818151815260200191508051906020019080838360005b83811015610e85578082015181840152602081019050610e6a565b50505050905090810190601f168015610eb25780820380516001836020036101000a031916815260200191505b5095505050505050600060405180830381600087803b158015610ed457600080fd5b505af1158015610ee8573d6000803e3d6000fd5b50505050600360009054906101000a900473ffffffffffffffffffffffffffffffffffffffff1673ffffffffffffffffffffffffffffffffffffffff16632f7ba5ec846040518263ffffffff167c01000000000000000000000000000000000000000000000000000000000281526004018080602001828103825283818151815260200191508051906020019080838360005b83811015610f96578082015181840152602081019050610f7b565b50505050905090810190601f168015610fc35780820380516001836020036101000a031916815260200191505b5092505050600060405180830381600087803b158015610fe257600080fd5b505af1158015610ff6573d6000803e3d6000fd5b5050505050505050565b6000600554905090565b6000806000846000191660001916815260200190815260200160002060008381526020019081526020016000206006015460019004905092915050565b60055481565b600260009054906101000a900473ffffffffffffffffffffffffffffffffffffffff1673ffffffffffffffffffffffffffffffffffffffff163373ffffffffffffffffffffffffffffffffffffffff161415156110a957600080fd5b82600080866000191660001916815260200190815260200160002060008381526020019081526020016000206002018160001916905550816000808660001916600019168152602001908152602001600020600083815260200190815260200160002060030181600019169055506001806000866000191660001916815260200190815260200160002060006101000a81548160ff02191690831515021790555083600481600019169055508060058190555050505050565b60008069021e19e0c9bab2400000600360009054906101000a900473ffffffffffffffffffffffffffffffffffffffff1673ffffffffffffffffffffffffffffffffffffffff166370a08231856040518263ffffffff167c0100000000000000000000000000000000000000000000000000000000028152600401808273ffffffffffffffffffffffffffffffffffffffff1673ffffffffffffffffffffffffffffffffffffffff168152602001915050602060405180830381600087803b15801561122d57600080fd5b505af1158015611241573d6000803e3d6000fd5b505050506040513d602081101561125757600080fd5b81019080805190602001909291905050501015151561127557600080fd5b600360009054906101000a900473ffffffffffffffffffffffffffffffffffffffff1673ffffffffffffffffffffffffffffffffffffffff166370a08231846040518263ffffffff167c0100000000000000000000000000000000000000000000000000000000028152600401808273ffffffffffffffffffffffffffffffffffffffff1673ffffffffffffffffffffffffffffffffffffffff168152602001915050602060405180830381600087803b15801561133257600080fd5b505af1158015611346573d6000803e3d6000fd5b505050506040513d602081101561135c57600080fd5b8101908080519060200190929190505050905061138c69021e19e0c9bab24000008261150490919063ffffffff16565b915050919050565b6000806000600454600019166000191681526020019081526020016000206000600554815260200190815260200160002060000173__addressSet____________________________63e091eaad9091846040518363ffffffff167c0100000000000000000000000000000000000000000000000000000000028152600401808381526020018273ffffffffffffffffffffffffffffffffffffffff1673ffffffffffffffffffffffffffffffffffffffff1681526020019250505060206040518083038186803b15801561146857600080fd5b505af415801561147c573d6000803e3d6000fd5b505050506040513d602081101561149257600080fd5b81019080805190602001909291905050509050919050565b60008060008460001916600019168152602001908152602001600020600083815260200190815260200160002060020154905092915050565b60008082840190508381101515156114fa57600080fd5b8091505092915050565b60008060008311151561151657600080fd5b828481151561152157fe5b04905080915050929150505600a165627a7a7230582080d827debde8ffcaf26353ffefb68bb11d52dacd28a41d7ca6587ff57ef96b4c0029",
  "source": "pragma solidity ^0.4.24;\n\nimport \"./addressSet.sol\";\nimport \"./ERC20d.sol\";\n\ncontract communalValidation {\n\n  using addressSet for addressSet.Set;\n  using SafeMath for uint;\n\n  bytes32 constant POS = 0x506f736974697665000000000000000000000000000000000000000000000000;\n  bytes32 constant NEU = 0x4e65757472616c00000000000000000000000000000000000000000000000000;\n  bytes32 constant NEG = 0x4e65676174697665000000000000000000000000000000000000000000000000;\n\n  uint constant VOTE = 10000000000000000000000;\n\n  struct _validation {\n\n      addressSet.Set _delegates;\n      bytes32 _ticker;\n      bytes32 _type;\n      bytes32 _positive;\n      bytes32 _negative;\n      bytes32 _neutral;\n      bytes32 _rounds;\n      bytes32 _result;\n\n  }\n\n  mapping(bytes32 => mapping (uint => _validation)) private _event;\n  mapping(bytes32 => bool) private _active;\n\n  address public _admin  = msg.sender;\n  ERC20d private _VLDY;\n  bytes32 public _live;\n  uint public _round;\n\n  modifier _delegateCheck(address _account) {\n    require(!_event[_live][_round]._delegates.contains(_account)\n            && _VLDY.isStaking(_account)\n            && _VLDY.isActive(_account));\n    _;\n  }\n\n  modifier _onlyAdmin() {\n      require(msg.sender == _admin);\n      _;\n  }\n\n  function initialiseAsset(address _source) _onlyAdmin public {\n      _VLDY = ERC20d(_source);\n  }\n\n  function currentEvent() public view returns (bytes32 subject) {\n      subject = _live;\n   }\n\n  function currentRound() public view returns (uint round) {\n      round = _round;\n  }\n\n  function isVoted(address _voter) public view returns (bool) {\n      return _event[_live][_round]._delegates.contains(_voter);\n  }\n\n  function eventTicker(bytes32 _entity, uint _index) public view returns (bytes32 ticker) {\n      ticker = _event[_entity][_index]._ticker;\n  }\n\n  function eventType(bytes32 _entity, uint _index) public view returns (bytes32 class) {\n      class = _event[_entity][_index]._type;\n  }\n\n  function eventPositive(bytes32 _entity, uint _index) public view returns (uint positive) {\n      positive = uint(_event[_entity][_index]._positive);\n  }\n\n  function eventNegative(bytes32 _entity, uint _index) public view returns (uint negative) {\n      negative = uint(_event[_entity][_index]._negative);\n  }\n\n  function eventNeutral(bytes32 _entity, uint _index) public view returns (uint neutral) {\n      neutral = uint(_event[_entity][_index]._neutral);\n  }\n\n  function createEvent(bytes32 _entity, bytes32 _tick, bytes32 _asset, uint _index) public _onlyAdmin\n  {\n      _event[_entity][_index]._ticker = _tick;\n      _event[_entity][_index]._type = _asset;\n      _active[_entity] = true;\n      _live = _entity;\n      _round = _index;\n  }\n\n  function voteSubmit(bytes32 _choice) _delegateCheck(msg.sender) public {\n      _event[_live][_round]._delegates.insert(msg.sender);\n      bytes memory id = _VLDY.getvID(msg.sender);\n      uint weight = votingWeight(msg.sender);\n\n      if(_choice == POS) {\n        _event[_live][_round]._positive = bytes32(eventPositive(_live, _round).add(weight));\n      } else if(_choice == NEU) {\n        _event[_live][_round]._neutral = bytes32(eventNeutral(_live, _round).add(weight));\n      } else if(_choice == NEG) {\n        _event[_live][_round]._negative = bytes32(eventNegative(_live, _round).add(weight));\n      }\n\n      _VLDY.delegationEvent(id, _live, _choice, weight);\n      _VLDY.increaseTrust(id);\n  }\n\n  function votingWeight(address _voter) public view returns (uint stake) {\n      require(_VLDY.balanceOf(_voter) >= VOTE);\n\n      uint wager = _VLDY.balanceOf(_voter);\n      stake = wager.div(VOTE);\n  }\n\n}\n",
  "sourcePath": "/Users/sxg/Desktop/mvp/contracts/communalValidation.sol",
  "compiler": {
    "name": "solc",
    "version": "0.4.25+commit.59dbf8f1.Emscripten.clang"
  },
  "schemaVersion": "2.0.2",
  "updatedAt": "2019-04-11T23:57:28.123Z"
}