{
  "contractName": "ERC20d",
  "abi": [
    {
      "inputs": [],
      "payable": false,
      "stateMutability": "nonpayable",
      "type": "constructor"
    },
    {
      "anonymous": false,
      "inputs": [
        {
          "indexed": true,
          "name": "owner",
          "type": "address"
        },
        {
          "indexed": true,
          "name": "spender",
          "type": "address"
        },
        {
          "indexed": false,
          "name": "value",
          "type": "uint256"
        }
      ],
      "name": "Approval",
      "type": "event"
    },
    {
      "anonymous": false,
      "inputs": [
        {
          "indexed": true,
          "name": "from",
          "type": "address"
        },
        {
          "indexed": true,
          "name": "to",
          "type": "address"
        },
        {
          "indexed": false,
          "name": "value",
          "type": "uint256"
        }
      ],
      "name": "Transfer",
      "type": "event"
    },
    {
      "anonymous": false,
      "inputs": [
        {
          "indexed": false,
          "name": "vID",
          "type": "bytes"
        },
        {
          "indexed": false,
          "name": "subject",
          "type": "bytes32"
        },
        {
          "indexed": false,
          "name": "choice",
          "type": "bytes32"
        },
        {
          "indexed": false,
          "name": "weight",
          "type": "uint256"
        }
      ],
      "name": "Vote",
      "type": "event"
    },
    {
      "anonymous": false,
      "inputs": [
        {
          "indexed": true,
          "name": "subject",
          "type": "address"
        },
        {
          "indexed": false,
          "name": "vID",
          "type": "bytes"
        },
        {
          "indexed": false,
          "name": "block",
          "type": "uint256"
        }
      ],
      "name": "Neo",
      "type": "event"
    },
    {
      "anonymous": false,
      "inputs": [
        {
          "indexed": false,
          "name": "vID",
          "type": "bytes"
        },
        {
          "indexed": false,
          "name": "reward",
          "type": "uint256"
        }
      ],
      "name": "Reward",
      "type": "event"
    },
    {
      "anonymous": false,
      "inputs": [
        {
          "indexed": false,
          "name": "vID",
          "type": "bytes"
        },
        {
          "indexed": false,
          "name": "flux",
          "type": "bytes32"
        }
      ],
      "name": "Trust",
      "type": "event"
    },
    {
      "anonymous": false,
      "inputs": [
        {
          "indexed": true,
          "name": "staker",
          "type": "address"
        }
      ],
      "name": "Stake",
      "type": "event"
    },
    {
      "constant": false,
      "inputs": [],
      "name": "toggleStake",
      "outputs": [],
      "payable": false,
      "stateMutability": "nonpayable",
      "type": "function"
    },
    {
      "constant": false,
      "inputs": [
        {
          "name": "_identity",
          "type": "bytes32"
        }
      ],
      "name": "setIdentity",
      "outputs": [],
      "payable": false,
      "stateMutability": "nonpayable",
      "type": "function"
    },
    {
      "constant": true,
      "inputs": [],
      "name": "name",
      "outputs": [
        {
          "name": "",
          "type": "string"
        }
      ],
      "payable": false,
      "stateMutability": "view",
      "type": "function"
    },
    {
      "constant": true,
      "inputs": [],
      "name": "symbol",
      "outputs": [
        {
          "name": "",
          "type": "string"
        }
      ],
      "payable": false,
      "stateMutability": "view",
      "type": "function"
    },
    {
      "constant": true,
      "inputs": [],
      "name": "decimals",
      "outputs": [
        {
          "name": "",
          "type": "uint256"
        }
      ],
      "payable": false,
      "stateMutability": "view",
      "type": "function"
    },
    {
      "constant": true,
      "inputs": [],
      "name": "maxSupply",
      "outputs": [
        {
          "name": "",
          "type": "uint256"
        }
      ],
      "payable": false,
      "stateMutability": "view",
      "type": "function"
    },
    {
      "constant": true,
      "inputs": [],
      "name": "totalSupply",
      "outputs": [
        {
          "name": "",
          "type": "uint256"
        }
      ],
      "payable": false,
      "stateMutability": "view",
      "type": "function"
    },
    {
      "constant": true,
      "inputs": [
        {
          "name": "_id",
          "type": "bytes"
        }
      ],
      "name": "isVoted",
      "outputs": [
        {
          "name": "",
          "type": "bool"
        }
      ],
      "payable": false,
      "stateMutability": "view",
      "type": "function"
    },
    {
      "constant": true,
      "inputs": [
        {
          "name": "_account",
          "type": "address"
        }
      ],
      "name": "isActive",
      "outputs": [
        {
          "name": "",
          "type": "bool"
        }
      ],
      "payable": false,
      "stateMutability": "view",
      "type": "function"
    },
    {
      "constant": true,
      "inputs": [
        {
          "name": "_account",
          "type": "address"
        }
      ],
      "name": "isStaking",
      "outputs": [
        {
          "name": "",
          "type": "bool"
        }
      ],
      "payable": false,
      "stateMutability": "view",
      "type": "function"
    },
    {
      "constant": true,
      "inputs": [
        {
          "name": "_owner",
          "type": "address"
        }
      ],
      "name": "balanceOf",
      "outputs": [
        {
          "name": "",
          "type": "uint256"
        }
      ],
      "payable": false,
      "stateMutability": "view",
      "type": "function"
    },
    {
      "constant": true,
      "inputs": [
        {
          "name": "_account",
          "type": "address"
        }
      ],
      "name": "getvID",
      "outputs": [
        {
          "name": "",
          "type": "bytes"
        }
      ],
      "payable": false,
      "stateMutability": "view",
      "type": "function"
    },
    {
      "constant": true,
      "inputs": [
        {
          "name": "_id",
          "type": "bytes"
        }
      ],
      "name": "getIdentity",
      "outputs": [
        {
          "name": "",
          "type": "bytes32"
        }
      ],
      "payable": false,
      "stateMutability": "view",
      "type": "function"
    },
    {
      "constant": true,
      "inputs": [
        {
          "name": "_id",
          "type": "bytes"
        }
      ],
      "name": "getAddress",
      "outputs": [
        {
          "name": "",
          "type": "address"
        }
      ],
      "payable": false,
      "stateMutability": "view",
      "type": "function"
    },
    {
      "constant": true,
      "inputs": [
        {
          "name": "_id",
          "type": "bytes"
        }
      ],
      "name": "trustLevel",
      "outputs": [
        {
          "name": "",
          "type": "uint256"
        }
      ],
      "payable": false,
      "stateMutability": "view",
      "type": "function"
    },
    {
      "constant": true,
      "inputs": [
        {
          "name": "_id",
          "type": "bytes"
        }
      ],
      "name": "totalEvents",
      "outputs": [
        {
          "name": "",
          "type": "uint256"
        }
      ],
      "payable": false,
      "stateMutability": "view",
      "type": "function"
    },
    {
      "constant": true,
      "inputs": [
        {
          "name": "_id",
          "type": "bytes"
        }
      ],
      "name": "totalVotes",
      "outputs": [
        {
          "name": "",
          "type": "uint256"
        }
      ],
      "payable": false,
      "stateMutability": "view",
      "type": "function"
    },
    {
      "constant": true,
      "inputs": [
        {
          "name": "_id",
          "type": "bytes"
        }
      ],
      "name": "positiveVotes",
      "outputs": [
        {
          "name": "",
          "type": "uint256"
        }
      ],
      "payable": false,
      "stateMutability": "view",
      "type": "function"
    },
    {
      "constant": true,
      "inputs": [
        {
          "name": "_id",
          "type": "bytes"
        }
      ],
      "name": "negativeVotes",
      "outputs": [
        {
          "name": "",
          "type": "uint256"
        }
      ],
      "payable": false,
      "stateMutability": "view",
      "type": "function"
    },
    {
      "constant": true,
      "inputs": [
        {
          "name": "_id",
          "type": "bytes"
        }
      ],
      "name": "neutralVotes",
      "outputs": [
        {
          "name": "",
          "type": "uint256"
        }
      ],
      "payable": false,
      "stateMutability": "view",
      "type": "function"
    },
    {
      "constant": true,
      "inputs": [
        {
          "name": "_owner",
          "type": "address"
        },
        {
          "name": "_spender",
          "type": "address"
        }
      ],
      "name": "allowance",
      "outputs": [
        {
          "name": "",
          "type": "uint256"
        }
      ],
      "payable": false,
      "stateMutability": "view",
      "type": "function"
    },
    {
      "constant": false,
      "inputs": [
        {
          "name": "_to",
          "type": "address"
        },
        {
          "name": "_value",
          "type": "uint256"
        }
      ],
      "name": "transfer",
      "outputs": [
        {
          "name": "",
          "type": "bool"
        }
      ],
      "payable": false,
      "stateMutability": "nonpayable",
      "type": "function"
    },
    {
      "constant": false,
      "inputs": [
        {
          "name": "_spender",
          "type": "address"
        },
        {
          "name": "_value",
          "type": "uint256"
        }
      ],
      "name": "approve",
      "outputs": [
        {
          "name": "",
          "type": "bool"
        }
      ],
      "payable": false,
      "stateMutability": "nonpayable",
      "type": "function"
    },
    {
      "constant": false,
      "inputs": [
        {
          "name": "_from",
          "type": "address"
        },
        {
          "name": "_to",
          "type": "address"
        },
        {
          "name": "_value",
          "type": "uint256"
        }
      ],
      "name": "transferFrom",
      "outputs": [
        {
          "name": "",
          "type": "bool"
        }
      ],
      "payable": false,
      "stateMutability": "nonpayable",
      "type": "function"
    },
    {
      "constant": false,
      "inputs": [
        {
          "name": "_spender",
          "type": "address"
        },
        {
          "name": "_addedValue",
          "type": "uint256"
        }
      ],
      "name": "increaseAllowance",
      "outputs": [
        {
          "name": "",
          "type": "bool"
        }
      ],
      "payable": false,
      "stateMutability": "nonpayable",
      "type": "function"
    },
    {
      "constant": false,
      "inputs": [
        {
          "name": "_spender",
          "type": "address"
        },
        {
          "name": "_subtractedValue",
          "type": "uint256"
        }
      ],
      "name": "decreaseAllowance",
      "outputs": [
        {
          "name": "",
          "type": "bool"
        }
      ],
      "payable": false,
      "stateMutability": "nonpayable",
      "type": "function"
    },
    {
      "constant": false,
      "inputs": [
        {
          "name": "_id",
          "type": "bytes"
        },
        {
          "name": "_account",
          "type": "address"
        },
        {
          "name": "_reward",
          "type": "uint256"
        }
      ],
      "name": "delegationReward",
      "outputs": [],
      "payable": false,
      "stateMutability": "nonpayable",
      "type": "function"
    },
    {
      "constant": false,
      "inputs": [
        {
          "name": "_id",
          "type": "bytes"
        },
        {
          "name": "_subject",
          "type": "bytes32"
        },
        {
          "name": "_choice",
          "type": "bytes32"
        },
        {
          "name": "_weight",
          "type": "uint256"
        }
      ],
      "name": "delegationEvent",
      "outputs": [],
      "payable": false,
      "stateMutability": "nonpayable",
      "type": "function"
    },
    {
      "constant": false,
      "inputs": [
        {
          "name": "_id",
          "type": "bytes"
        }
      ],
      "name": "increaseTrust",
      "outputs": [],
      "payable": false,
      "stateMutability": "nonpayable",
      "type": "function"
    },
    {
      "constant": false,
      "inputs": [
        {
          "name": "_id",
          "type": "bytes"
        }
      ],
      "name": "decreaseTrust",
      "outputs": [],
      "payable": false,
      "stateMutability": "nonpayable",
      "type": "function"
    },
    {
      "constant": false,
      "inputs": [
        {
          "name": "_entity",
          "type": "address"
        }
      ],
      "name": "adminControl",
      "outputs": [],
      "payable": false,
      "stateMutability": "nonpayable",
      "type": "function"
    }
  ],
  "bytecode": "0x608060405233600960006101000a81548173ffffffffffffffffffffffffffffffffffffffff021916908373ffffffffffffffffffffffffffffffffffffffff1602179055506000600a60006101000a81548173ffffffffffffffffffffffffffffffffffffffff021916908373ffffffffffffffffffffffffffffffffffffffff1602179055503480156200009457600080fd5b506000620000c36012600a0a640b3131fd80620001df640100000000026200369e179091906401000000009004565b9050620000f16012600a0a640bc7feba00620001df640100000000026200369e179091906401000000009004565b600c8190555062000134600960009054906101000a900473ffffffffffffffffffffffffffffffffffffffff168262000221640100000000026401000000009004565b6040805190810160405280600881526020017f56616c6964697479000000000000000000000000000000000000000000000000815250600e90805190602001906200018192919062000963565b506040805190810160405280600481526020017f564c445900000000000000000000000000000000000000000000000000000000815250600f9080519060200190620001cf92919062000963565b506012600d819055505062000a99565b6000806000841415620001f657600091506200021a565b82840290508284828115156200020857fe5b041415156200021657600080fd5b8091505b5092915050565b816200023c816200040c640100000000026401000000009004565b15156200025e576200025d8162000462640100000000026401000000009004565b5b600c546200028683600b546200069c6401000000000262002d63179091906401000000009004565b111515156200029457600080fd5b600073ffffffffffffffffffffffffffffffffffffffff168373ffffffffffffffffffffffffffffffffffffffff1614151515620002d157600080fd5b620002f682600b546200069c6401000000000262002d63179091906401000000009004565b600b819055506200035e82600160008673ffffffffffffffffffffffffffffffffffffffff1673ffffffffffffffffffffffffffffffffffffffff168152602001908152602001600020546200069c6401000000000262002d63179091906401000000009004565b600160008573ffffffffffffffffffffffffffffffffffffffff1673ffffffffffffffffffffffffffffffffffffffff168152602001908152602001600020819055508273ffffffffffffffffffffffffffffffffffffffff16600073ffffffffffffffffffffffffffffffffffffffff167fddf252ad1be2c89b69c2b068fc378daa952ba7f163c4a11628f55a4df523b3ef846040518082815260200191505060405180910390a3505050565b6000600460008373ffffffffffffffffffffffffffffffffffffffff1673ffffffffffffffffffffffffffffffffffffffff16815260200190815260200160002060009054906101000a900460ff169050919050565b60606200047e82620006be640100000000026401000000009004565b90508173ffffffffffffffffffffffffffffffffffffffff167fbbe631222376d5fcf417ee6fe0f3e26db088a042ddcec4c266d013da3f28d1f482436040518080602001838152602001828103825284818151815260200191508051906020019080838360005b8381101562000502578082015181840152602081019050620004e5565b50505050905090810190601f168015620005305780820380516001836020036101000a031916815260200191505b50935050505060405180910390a26001600460008473ffffffffffffffffffffffffffffffffffffffff1673ffffffffffffffffffffffffffffffffffffffff16815260200190815260200160002060006101000a81548160ff021916908315150217905550816003826040518082805190602001908083835b602083101515620005d15780518252602082019150602081019050602083039250620005aa565b6001836020036101000a038019825116818451168082178552505050505050905001915050908152602001604051809103902060006101000a81548173ffffffffffffffffffffffffffffffffffffffff021916908373ffffffffffffffffffffffffffffffffffffffff16021790555080600660008473ffffffffffffffffffffffffffffffffffffffff1673ffffffffffffffffffffffffffffffffffffffff168152602001908152602001600020908051906020019062000697929190620009ea565b505050565b6000808284019050838110151515620006b457600080fd5b8091505092915050565b60608060006060600080600080620006e5426200091e640100000000026401000000009004565b96506756616c6964697479600102955060206040519080825280601f01601f1916602001820160405280156200072a5781602001602082028038833980820191505090505b5094508873ffffffffffffffffffffffffffffffffffffffff166001029350600092505b84518310156200090f578260180191508260140190506008831015620007e55785826020811015156200077d57fe5b1a7f0100000000000000000000000000000000000000000000000000000000000000028584815181101515620007af57fe5b9060200101907effffffffffffffffffffffffffffffffffffffffffffffffffffffffffffff1916908160001a90535062000901565b600c8310156200088e578681815181101515620007fe57fe5b9060200101517f010000000000000000000000000000000000000000000000000000000000000090047f01000000000000000000000000000000000000000000000000000000000000000285848151811015156200085857fe5b9060200101907effffffffffffffffffffffffffffffffffffffffffffffffffffffffffffff1916908160001a90535062000900565b83836020811015156200089d57fe5b1a7f0100000000000000000000000000000000000000000000000000000000000000028584815181101515620008cf57fe5b9060200101907effffffffffffffffffffffffffffffffffffffffffffffffffffffffffffff1916908160001a9053505b5b82806001019350506200074e565b84975050505050505050919050565b606060206040519080825280601f01601f191660200182016040528015620009555781602001602082028038833980820191505090505b509050816020820152919050565b828054600181600116156101000203166002900490600052602060002090601f016020900481019282601f10620009a657805160ff1916838001178555620009d7565b82800160010185558215620009d7579182015b82811115620009d6578251825591602001919060010190620009b9565b5b509050620009e6919062000a71565b5090565b828054600181600116156101000203166002900490600052602060002090601f016020900481019282601f1062000a2d57805160ff191683800117855562000a5e565b8280016001018555821562000a5e579182015b8281111562000a5d57825182559160200191906001019062000a40565b5b50905062000a6d919062000a71565b5090565b62000a9691905b8082111562000a9257600081600090555060010162000a78565b5090565b90565b6137088062000aa96000396000f30060806040526004361061018b576000357c0100000000000000000000000000000000000000000000000000000000900463ffffffff16806306fdde0314610190578063095ea7b31461022057806310592e931461028557806318160ddd14610302578063198bfb551461032d5780632092c32b1461035e57806323104378146103ed57806323b872dd1461046a5780632f7ba5ec146104ef578063313ce567146105585780633231cd5b1461058357806333bf3577146105ec578063395093511461062f5780633b7c8a36146106945780635f17d2c6146107115780636f49712b1461078e5780636fef4330146107e957806370a0823114610800578063761080b4146108575780637e1d6feb146108d857806395d89b41146109555780639f8a13d7146109e5578063a457c2d714610a40578063a9059cbb14610aa5578063aa5a6e1214610b0a578063aee6407414610b8f578063c47cf5de14610c0c578063d5abeb0114610cb5578063dd62ed3e14610ce0578063f734ab4c14610d57578063fe13020814610dea575b600080fd5b34801561019c57600080fd5b506101a5610ea6565b6040518080602001828103825283818151815260200191508051906020019080838360005b838110156101e55780820151818401526020810190506101ca565b50505050905090810190601f1680156102125780820380516001836020036101000a031916815260200191505b509250505060405180910390f35b34801561022c57600080fd5b5061026b600480360381019080803573ffffffffffffffffffffffffffffffffffffffff16906020019092919080359060200190929190505050610f48565b604051808215151515815260200191505060405180910390f35b34801561029157600080fd5b506102ec600480360381019080803590602001908201803590602001908080601f01602080910402602001604051908101604052809392919081815260200183838082843782019150505050505091929192905050506110fe565b6040518082815260200191505060405180910390f35b34801561030e57600080fd5b5061031761117a565b6040518082815260200191505060405180910390f35b34801561033957600080fd5b5061035c6004803603810190808035600019169060200190929190505050611184565b005b34801561036a57600080fd5b506103eb600480360381019080803590602001908201803590602001908080601f0160208091040260200160405190810160405280939291908181526020018383808284378201915050505050509192919290803560001916906020019092919080356000191690602001909291908035906020019092919050505061121a565b005b3480156103f957600080fd5b50610454600480360381019080803590602001908201803590602001908080601f0160208091040260200160405190810160405280939291908181526020018383808284378201915050505050509192919290505050611681565b6040518082815260200191505060405180910390f35b34801561047657600080fd5b506104d5600480360381019080803573ffffffffffffffffffffffffffffffffffffffff169060200190929190803573ffffffffffffffffffffffffffffffffffffffff169060200190929190803590602001909291905050506116fd565b604051808215151515815260200191505060405180910390f35b3480156104fb57600080fd5b50610556600480360381019080803590602001908201803590602001908080601f0160208091040260200160405190810160405280939291908181526020018383808284378201915050505050509192919290505050611902565b005b34801561056457600080fd5b5061056d611bc4565b6040518082815260200191505060405180910390f35b34801561058f57600080fd5b506105ea600480360381019080803590602001908201803590602001908080601f0160208091040260200160405190810160405280939291908181526020018383808284378201915050505050509192919290505050611bce565b005b3480156105f857600080fd5b5061062d600480360381019080803573ffffffffffffffffffffffffffffffffffffffff169060200190929190505050611e90565b005b34801561063b57600080fd5b5061067a600480360381019080803573ffffffffffffffffffffffffffffffffffffffff16906020019092919080359060200190929190505050611f30565b604051808215151515815260200191505060405180910390f35b3480156106a057600080fd5b506106fb600480360381019080803590602001908201803590602001908080601f0160208091040260200160405190810160405280939291908181526020018383808284378201915050505050509192919290505050612164565b6040518082815260200191505060405180910390f35b34801561071d57600080fd5b50610778600480360381019080803590602001908201803590602001908080601f01602080910402602001604051908101604052809392919081815260200183838082843782019150505050505091929192905050506121e0565b6040518082815260200191505060405180910390f35b34801561079a57600080fd5b506107cf600480360381019080803573ffffffffffffffffffffffffffffffffffffffff16906020019092919050505061225c565b604051808215151515815260200191505060405180910390f35b3480156107f557600080fd5b506107fe6122b2565b005b34801561080c57600080fd5b50610841600480360381019080803573ffffffffffffffffffffffffffffffffffffffff1690602001909291905050506123cc565b6040518082815260200191505060405180910390f35b34801561086357600080fd5b506108be600480360381019080803590602001908201803590602001908080601f0160208091040260200160405190810160405280939291908181526020018383808284378201915050505050509192919290505050612415565b604051808215151515815260200191505060405180910390f35b3480156108e457600080fd5b5061093f600480360381019080803590602001908201803590602001908080601f0160208091040260200160405190810160405280939291908181526020018383808284378201915050505050509192919290505050612497565b6040518082815260200191505060405180910390f35b34801561096157600080fd5b5061096a612513565b6040518080602001828103825283818151815260200191508051906020019080838360005b838110156109aa57808201518184015260208101905061098f565b50505050905090810190601f1680156109d75780820380516001836020036101000a031916815260200191505b509250505060405180910390f35b3480156109f157600080fd5b50610a26600480360381019080803573ffffffffffffffffffffffffffffffffffffffff1690602001909291905050506125b5565b604051808215151515815260200191505060405180910390f35b348015610a4c57600080fd5b50610a8b600480360381019080803573ffffffffffffffffffffffffffffffffffffffff1690602001909291908035906020019092919050505061260b565b604051808215151515815260200191505060405180910390f35b348015610ab157600080fd5b50610af0600480360381019080803573ffffffffffffffffffffffffffffffffffffffff1690602001909291908035906020019092919050505061283f565b604051808215151515815260200191505060405180910390f35b348015610b1657600080fd5b50610b71600480360381019080803590602001908201803590602001908080601f0160208091040260200160405190810160405280939291908181526020018383808284378201915050505050509192919290505050612856565b60405180826000191660001916815260200191505060405180910390f35b348015610b9b57600080fd5b50610bf6600480360381019080803590602001908201803590602001908080601f01602080910402602001604051908101604052809392919081815260200183838082843782019150505050505091929192905050506128ce565b6040518082815260200191505060405180910390f35b348015610c1857600080fd5b50610c73600480360381019080803590602001908201803590602001908080601f016020809104026020016040519081016040528093929190818152602001838380828437820191505050505050919291929050505061294a565b604051808273ffffffffffffffffffffffffffffffffffffffff1673ffffffffffffffffffffffffffffffffffffffff16815260200191505060405180910390f35b348015610cc157600080fd5b50610cca6129df565b6040518082815260200191505060405180910390f35b348015610cec57600080fd5b50610d41600480360381019080803573ffffffffffffffffffffffffffffffffffffffff169060200190929190803573ffffffffffffffffffffffffffffffffffffffff1690602001909291905050506129e9565b6040518082815260200191505060405180910390f35b348015610d6357600080fd5b50610de8600480360381019080803590602001908201803590602001908080601f0160208091040260200160405190810160405280939291908181526020018383808284378201915050505050509192919290803573ffffffffffffffffffffffffffffffffffffffff16906020019092919080359060200190929190505050612a6f565b005b348015610df657600080fd5b50610e2b600480360381019080803573ffffffffffffffffffffffffffffffffffffffff169060200190929190505050612c82565b6040518080602001828103825283818151815260200191508051906020019080838360005b83811015610e6b578082015181840152602081019050610e50565b50505050905090810190601f168015610e985780820380516001836020036101000a031916815260200191505b509250505060405180910390f35b6060600e8054600181600116156101000203166002900480601f016020809104026020016040519081016040528092919081815260200182805460018160011615610100020316600290048015610f3e5780601f10610f1357610100808354040283529160200191610f3e565b820191906000526020600020905b815481529060010190602001808311610f2157829003601f168201915b5050505050905090565b6000806000803373ffffffffffffffffffffffffffffffffffffffff1673ffffffffffffffffffffffffffffffffffffffff16815260200190815260200160002060008573ffffffffffffffffffffffffffffffffffffffff1673ffffffffffffffffffffffffffffffffffffffff16815260200190815260200160002054141515610fd357600080fd5b600073ffffffffffffffffffffffffffffffffffffffff168373ffffffffffffffffffffffffffffffffffffffff161415151561100f57600080fd5b816000803373ffffffffffffffffffffffffffffffffffffffff1673ffffffffffffffffffffffffffffffffffffffff16815260200190815260200160002060008573ffffffffffffffffffffffffffffffffffffffff1673ffffffffffffffffffffffffffffffffffffffff168152602001908152602001600020819055508273ffffffffffffffffffffffffffffffffffffffff163373ffffffffffffffffffffffffffffffffffffffff167f8c5be1e5ebec7d5bd14f71427d1e84f3dd0314c0f7b2291e5b200ac8c7c3b925846040518082815260200191505060405180910390a36001905092915050565b60006002826040518082805190602001908083835b6020831015156111385780518252602082019150602081019050602083039250611113565b6001836020036101000a038019825116818451168082178552505050505050905001915050908152602001604051809103902060050154600190049050919050565b6000600b54905090565b61118d336125b5565b151561119857600080fd5b8060026111a433612c82565b6040518082805190602001908083835b6020831015156111d957805182526020820191506020810190506020830392506111b4565b6001836020036101000a0380198251168184511680821785525050505050509050019150509081526020016040518091039020600001816000191690555050565b6000600a60009054906101000a900473ffffffffffffffffffffffffffffffffffffffff1673ffffffffffffffffffffffffffffffffffffffff163373ffffffffffffffffffffffffffffffffffffffff1614151561127857600080fd5b7f506f73697469766500000000000000000000000000000000000000000000000060010260001916836000191614806112db57507f4e65757472616c00000000000000000000000000000000000000000000000000600102600019168360001916145b8061131057507f4e65676174697665000000000000000000000000000000000000000000000000600102600019168360001916145b151561131b57600080fd5b61132c6113278661294a565b61225c565b151561133757600080fd5b61134085612415565b15151561134c57600080fd5b60016008866040518082805190602001908083835b6020831015156113865780518252602082019150602081019050602083039250611361565b6001836020036101000a038019825116818451168082178552505050505050905001915050908152602001604051809103902060006101000a81548160ff0219169083151502179055506002856040518082805190602001908083835b60208310151561140857805182526020820191506020810190506020830392506113e3565b6001836020036101000a038019825116818451168082178552505050505050905001915050908152602001604051809103902090507f506f736974697665000000000000000000000000000000000000000000000000600102600019168360001916141561149f5761148b8261147d87612497565b612d6390919063ffffffff16565b600102816001018160001916905550611561565b7f4e65757472616c000000000000000000000000000000000000000000000000006001026000191683600019161415611501576114ed826114df876128ce565b612d6390919063ffffffff16565b600102816003018160001916905550611560565b7f4e65676174697665000000000000000000000000000000000000000000000000600102600019168360001916141561155f5761154f8261154187611681565b612d6390919063ffffffff16565b6001028160020181600019169055505b5b5b61157c8261156e876110fe565b612d6390919063ffffffff16565b6001028160050181600019169055506115a7600161159987612164565b612d6390919063ffffffff16565b6001028160040181600019169055507f6eb2215f1aa7b65f46347f98cf5c982137120bec0822d8ec5b3d369a2f42a94685858585604051808060200185600019166000191681526020018460001916600019168152602001838152602001828103825286818151815260200191508051906020019080838360005b8381101561163d578082015181840152602081019050611622565b50505050905090810190601f16801561166a5780820380516001836020036101000a031916815260200191505b509550505050505060405180910390a15050505050565b60006002826040518082805190602001908083835b6020831015156116bb5780518252602082019150602081019050602083039250611696565b6001836020036101000a038019825116818451168082178552505050505050905001915050908152602001604051809103902060020154600190049050919050565b600061178d826000808773ffffffffffffffffffffffffffffffffffffffff1673ffffffffffffffffffffffffffffffffffffffff16815260200190815260200160002060003373ffffffffffffffffffffffffffffffffffffffff1673ffffffffffffffffffffffffffffffffffffffff16815260200190815260200160002054612d8490919063ffffffff16565b6000808673ffffffffffffffffffffffffffffffffffffffff1673ffffffffffffffffffffffffffffffffffffffff16815260200190815260200160002060003373ffffffffffffffffffffffffffffffffffffffff1673ffffffffffffffffffffffffffffffffffffffff16815260200190815260200160002081905550611817848484612da5565b3373ffffffffffffffffffffffffffffffffffffffff168473ffffffffffffffffffffffffffffffffffffffff167f8c5be1e5ebec7d5bd14f71427d1e84f3dd0314c0f7b2291e5b200ac8c7c3b9256000808873ffffffffffffffffffffffffffffffffffffffff1673ffffffffffffffffffffffffffffffffffffffff16815260200190815260200160002060003373ffffffffffffffffffffffffffffffffffffffff1673ffffffffffffffffffffffffffffffffffffffff168152602001908152602001600020546040518082815260200191505060405180910390a3600190509392505050565b80436007826040518082805190602001908083835b60208310151561193c5780518252602082019150602081019050602083039250611917565b6001836020036101000a03801982511681845116808217855250505050505090500191505090815260200160405180910390205410151561197c57600080fd5b600a60009054906101000a900473ffffffffffffffffffffffffffffffffffffffff1673ffffffffffffffffffffffffffffffffffffffff163373ffffffffffffffffffffffffffffffffffffffff161415156119d857600080fd5b6119f460016119e6846121e0565b612d6390919063ffffffff16565b6001026002836040518082805190602001908083835b602083101515611a2f5780518252602082019150602081019050602083039250611a0a565b6001836020036101000a03801982511681845116808217855250505050505090500191505090815260200160405180910390206006018160001916905550611a826103e843612d6390919063ffffffff16565b6007836040518082805190602001908083835b602083101515611aba5780518252602082019150602081019050602083039250611a95565b6001836020036101000a0380198251168184511680821785525050505050509050019150509081526020016040518091039020819055507f51afe31dabada9b8a7f7f71a3ae9bacdf0b339c05648f9550244112f4978486e827f506f73697469766500000000000000000000000000000000000000000000000060010260405180806020018360001916600019168152602001828103825284818151815260200191508051906020019080838360005b83811015611b85578082015181840152602081019050611b6a565b50505050905090810190601f168015611bb25780820380516001836020036101000a031916815260200191505b50935050505060405180910390a15050565b6000600d54905090565b80436007826040518082805190602001908083835b602083101515611c085780518252602082019150602081019050602083039250611be3565b6001836020036101000a038019825116818451168082178552505050505050905001915050908152602001604051809103902054101515611c4857600080fd5b600a60009054906101000a900473ffffffffffffffffffffffffffffffffffffffff1673ffffffffffffffffffffffffffffffffffffffff163373ffffffffffffffffffffffffffffffffffffffff16141515611ca457600080fd5b611cc06001611cb2846121e0565b612d6390919063ffffffff16565b6001026002836040518082805190602001908083835b602083101515611cfb5780518252602082019150602081019050602083039250611cd6565b6001836020036101000a03801982511681845116808217855250505050505090500191505090815260200160405180910390206006018160001916905550611d4e6103e843612d6390919063ffffffff16565b6007836040518082805190602001908083835b602083101515611d865780518252602082019150602081019050602083039250611d61565b6001836020036101000a0380198251168184511680821785525050505050509050019150509081526020016040518091039020819055507f51afe31dabada9b8a7f7f71a3ae9bacdf0b339c05648f9550244112f4978486e827f4e6567617469766500000000000000000000000000000000000000000000000060010260405180806020018360001916600019168152602001828103825284818151815260200191508051906020019080838360005b83811015611e51578082015181840152602081019050611e36565b50505050905090810190601f168015611e7e5780820380516001836020036101000a031916815260200191505b50935050505060405180910390a15050565b600960009054906101000a900473ffffffffffffffffffffffffffffffffffffffff1673ffffffffffffffffffffffffffffffffffffffff163373ffffffffffffffffffffffffffffffffffffffff16141515611eec57600080fd5b80600a60006101000a81548173ffffffffffffffffffffffffffffffffffffffff021916908373ffffffffffffffffffffffffffffffffffffffff16021790555050565b60008073ffffffffffffffffffffffffffffffffffffffff168373ffffffffffffffffffffffffffffffffffffffff1614151515611f6d57600080fd5b611ffb826000803373ffffffffffffffffffffffffffffffffffffffff1673ffffffffffffffffffffffffffffffffffffffff16815260200190815260200160002060008673ffffffffffffffffffffffffffffffffffffffff1673ffffffffffffffffffffffffffffffffffffffff16815260200190815260200160002054612d6390919063ffffffff16565b6000803373ffffffffffffffffffffffffffffffffffffffff1673ffffffffffffffffffffffffffffffffffffffff16815260200190815260200160002060008573ffffffffffffffffffffffffffffffffffffffff1673ffffffffffffffffffffffffffffffffffffffff168152602001908152602001600020819055508273ffffffffffffffffffffffffffffffffffffffff163373ffffffffffffffffffffffffffffffffffffffff167f8c5be1e5ebec7d5bd14f71427d1e84f3dd0314c0f7b2291e5b200ac8c7c3b9256000803373ffffffffffffffffffffffffffffffffffffffff1673ffffffffffffffffffffffffffffffffffffffff16815260200190815260200160002060008773ffffffffffffffffffffffffffffffffffffffff1673ffffffffffffffffffffffffffffffffffffffff168152602001908152602001600020546040518082815260200191505060405180910390a36001905092915050565b60006002826040518082805190602001908083835b60208310151561219e5780518252602082019150602081019050602083039250612179565b6001836020036101000a038019825116818451168082178552505050505050905001915050908152602001604051809103902060040154600190049050919050565b60006002826040518082805190602001908083835b60208310151561221a57805182526020820191506020810190506020830392506121f5565b6001836020036101000a038019825116818451168082178552505050505050905001915050908152602001604051809103902060060154600190049050919050565b6000600560008373ffffffffffffffffffffffffffffffffffffffff1673ffffffffffffffffffffffffffffffffffffffff16815260200190815260200160002060009054906101000a900460ff169050919050565b6122c36122be33612c82565b612415565b1515156122cf57600080fd5b6122d8336125b5565b15156122e357600080fd5b600560003373ffffffffffffffffffffffffffffffffffffffff1673ffffffffffffffffffffffffffffffffffffffff16815260200190815260200160002060009054906101000a900460ff1615600560003373ffffffffffffffffffffffffffffffffffffffff1673ffffffffffffffffffffffffffffffffffffffff16815260200190815260200160002060006101000a81548160ff0219169083151502179055503373ffffffffffffffffffffffffffffffffffffffff167f8c000936ed6cc8b0c4218956860faac1c834b4ec96b46fa995aa58fc097fea1660405160405180910390a2565b6000600160008373ffffffffffffffffffffffffffffffffffffffff1673ffffffffffffffffffffffffffffffffffffffff168152602001908152602001600020549050919050565b60006008826040518082805190602001908083835b60208310151561244f578051825260208201915060208101905060208303925061242a565b6001836020036101000a038019825116818451168082178552505050505050905001915050908152602001604051809103902060009054906101000a900460ff169050919050565b60006002826040518082805190602001908083835b6020831015156124d157805182526020820191506020810190506020830392506124ac565b6001836020036101000a038019825116818451168082178552505050505050905001915050908152602001604051809103902060010154600190049050919050565b6060600f8054600181600116156101000203166002900480601f0160208091040260200160405190810160405280929190818152602001828054600181600116156101000203166002900480156125ab5780601f10612580576101008083540402835291602001916125ab565b820191906000526020600020905b81548152906001019060200180831161258e57829003601f168201915b5050505050905090565b6000600460008373ffffffffffffffffffffffffffffffffffffffff1673ffffffffffffffffffffffffffffffffffffffff16815260200190815260200160002060009054906101000a900460ff169050919050565b60008073ffffffffffffffffffffffffffffffffffffffff168373ffffffffffffffffffffffffffffffffffffffff161415151561264857600080fd5b6126d6826000803373ffffffffffffffffffffffffffffffffffffffff1673ffffffffffffffffffffffffffffffffffffffff16815260200190815260200160002060008673ffffffffffffffffffffffffffffffffffffffff1673ffffffffffffffffffffffffffffffffffffffff16815260200190815260200160002054612d8490919063ffffffff16565b6000803373ffffffffffffffffffffffffffffffffffffffff1673ffffffffffffffffffffffffffffffffffffffff16815260200190815260200160002060008573ffffffffffffffffffffffffffffffffffffffff1673ffffffffffffffffffffffffffffffffffffffff168152602001908152602001600020819055508273ffffffffffffffffffffffffffffffffffffffff163373ffffffffffffffffffffffffffffffffffffffff167f8c5be1e5ebec7d5bd14f71427d1e84f3dd0314c0f7b2291e5b200ac8c7c3b9256000803373ffffffffffffffffffffffffffffffffffffffff1673ffffffffffffffffffffffffffffffffffffffff16815260200190815260200160002060008773ffffffffffffffffffffffffffffffffffffffff1673ffffffffffffffffffffffffffffffffffffffff168152602001908152602001600020546040518082815260200191505060405180910390a36001905092915050565b600061284c338484612da5565b6001905092915050565b60006002826040518082805190602001908083835b602083101515612890578051825260208201915060208101905060208303925061286b565b6001836020036101000a0380198251168184511680821785525050505050509050019150509081526020016040518091039020600001549050919050565b60006002826040518082805190602001908083835b60208310151561290857805182526020820191506020810190506020830392506128e3565b6001836020036101000a038019825116818451168082178552505050505050905001915050908152602001604051809103902060030154600190049050919050565b60006003826040518082805190602001908083835b602083101515612984578051825260208201915060208101905060208303925061295f565b6001836020036101000a038019825116818451168082178552505050505050905001915050908152602001604051809103902060009054906101000a900473ffffffffffffffffffffffffffffffffffffffff169050919050565b6000600c54905090565b60008060008473ffffffffffffffffffffffffffffffffffffffff1673ffffffffffffffffffffffffffffffffffffffff16815260200190815260200160002060008373ffffffffffffffffffffffffffffffffffffffff1673ffffffffffffffffffffffffffffffffffffffff16815260200190815260200160002054905092915050565b600a60009054906101000a900473ffffffffffffffffffffffffffffffffffffffff1673ffffffffffffffffffffffffffffffffffffffff163373ffffffffffffffffffffffffffffffffffffffff16141515612acb57600080fd5b612ad48261225c565b1515612adf57600080fd5b612ae883612415565b1515612af357600080fd5b60006008846040518082805190602001908083835b602083101515612b2d5780518252602082019150602081019050602083039250612b08565b6001836020036101000a038019825116818451168082178552505050505050905001915050908152602001604051809103902060006101000a81548160ff0219169083151502179055506000600560008473ffffffffffffffffffffffffffffffffffffffff1673ffffffffffffffffffffffffffffffffffffffff16815260200190815260200160002060006101000a81548160ff021916908315150217905550612bd98282612fbb565b7fd1584ebcf22eb38bfd76b643218d1b3443dab74fc8f33151d8d7460bc3ff191483826040518080602001838152602001828103825284818151815260200191508051906020019080838360005b83811015612c42578082015181840152602081019050612c27565b50505050905090810190601f168015612c6f5780820380516001836020036101000a031916815260200191505b50935050505060405180910390a1505050565b6060600660008373ffffffffffffffffffffffffffffffffffffffff1673ffffffffffffffffffffffffffffffffffffffff1681526020019081526020016000208054600181600116156101000203166002900480601f016020809104026020016040519081016040528092919081815260200182805460018160011615610100020316600290048015612d575780601f10612d2c57610100808354040283529160200191612d57565b820191906000526020600020905b815481529060010190602001808311612d3a57829003601f168201915b50505050509050919050565b6000808284019050838110151515612d7a57600080fd5b8091505092915050565b600080838311151515612d9657600080fd5b82840390508091505092915050565b8282612db08261225c565b158015612dc35750612dc18161225c565b155b1515612dce57600080fd5b83612dd8816125b5565b1515612de857612de781613151565b5b600073ffffffffffffffffffffffffffffffffffffffff168573ffffffffffffffffffffffffffffffffffffffff1614151515612e2457600080fd5b612e7684600160008973ffffffffffffffffffffffffffffffffffffffff1673ffffffffffffffffffffffffffffffffffffffff16815260200190815260200160002054612d8490919063ffffffff16565b600160008873ffffffffffffffffffffffffffffffffffffffff1673ffffffffffffffffffffffffffffffffffffffff16815260200190815260200160002081905550612f0b84600160008873ffffffffffffffffffffffffffffffffffffffff1673ffffffffffffffffffffffffffffffffffffffff16815260200190815260200160002054612d6390919063ffffffff16565b600160008773ffffffffffffffffffffffffffffffffffffffff1673ffffffffffffffffffffffffffffffffffffffff168152602001908152602001600020819055508473ffffffffffffffffffffffffffffffffffffffff168673ffffffffffffffffffffffffffffffffffffffff167fddf252ad1be2c89b69c2b068fc378daa952ba7f163c4a11628f55a4df523b3ef866040518082815260200191505060405180910390a3505050505050565b81612fc5816125b5565b1515612fd557612fd481613151565b5b600c54612fed83600b54612d6390919063ffffffff16565b11151515612ffa57600080fd5b600073ffffffffffffffffffffffffffffffffffffffff168373ffffffffffffffffffffffffffffffffffffffff161415151561303657600080fd5b61304b82600b54612d6390919063ffffffff16565b600b819055506130a382600160008673ffffffffffffffffffffffffffffffffffffffff1673ffffffffffffffffffffffffffffffffffffffff16815260200190815260200160002054612d6390919063ffffffff16565b600160008573ffffffffffffffffffffffffffffffffffffffff1673ffffffffffffffffffffffffffffffffffffffff168152602001908152602001600020819055508273ffffffffffffffffffffffffffffffffffffffff16600073ffffffffffffffffffffffffffffffffffffffff167fddf252ad1be2c89b69c2b068fc378daa952ba7f163c4a11628f55a4df523b3ef846040518082815260200191505060405180910390a3505050565b606061315c82613373565b90508173ffffffffffffffffffffffffffffffffffffffff167fbbe631222376d5fcf417ee6fe0f3e26db088a042ddcec4c266d013da3f28d1f482436040518080602001838152602001828103825284818151815260200191508051906020019080838360005b838110156131de5780820151818401526020810190506131c3565b50505050905090810190601f16801561320b5780820380516001836020036101000a031916815260200191505b50935050505060405180910390a26001600460008473ffffffffffffffffffffffffffffffffffffffff1673ffffffffffffffffffffffffffffffffffffffff16815260200190815260200160002060006101000a81548160ff021916908315150217905550816003826040518082805190602001908083835b6020831015156132aa5780518252602082019150602081019050602083039250613285565b6001836020036101000a038019825116818451168082178552505050505050905001915050908152602001604051809103902060006101000a81548173ffffffffffffffffffffffffffffffffffffffff021916908373ffffffffffffffffffffffffffffffffffffffff16021790555080600660008473ffffffffffffffffffffffffffffffffffffffff1673ffffffffffffffffffffffffffffffffffffffff168152602001908152602001600020908051906020019061336e9291906135f9565b505050565b60608060006060600080600080613389426135b5565b96506756616c6964697479600102955060206040519080825280601f01601f1916602001820160405280156133cd5781602001602082028038833980820191505090505b5094508873ffffffffffffffffffffffffffffffffffffffff166001029350600092505b84518310156135a657826018019150826014019050600883101561348357858260208110151561341d57fe5b1a7f010000000000000000000000000000000000000000000000000000000000000002858481518110151561344e57fe5b9060200101907effffffffffffffffffffffffffffffffffffffffffffffffffffffffffffff1916908160001a905350613599565b600c83101561352857868181518110151561349a57fe5b9060200101517f010000000000000000000000000000000000000000000000000000000000000090047f01000000000000000000000000000000000000000000000000000000000000000285848151811015156134f357fe5b9060200101907effffffffffffffffffffffffffffffffffffffffffffffffffffffffffffff1916908160001a905350613598565b838360208110151561353657fe5b1a7f010000000000000000000000000000000000000000000000000000000000000002858481518110151561356757fe5b9060200101907effffffffffffffffffffffffffffffffffffffffffffffffffffffffffffff1916908160001a9053505b5b82806001019350506133f1565b84975050505050505050919050565b606060206040519080825280601f01601f1916602001820160405280156135eb5781602001602082028038833980820191505090505b509050816020820152919050565b828054600181600116156101000203166002900490600052602060002090601f016020900481019282601f1061363a57805160ff1916838001178555613668565b82800160010185558215613668579182015b8281111561366757825182559160200191906001019061364c565b5b5090506136759190613679565b5090565b61369b91905b8082111561369757600081600090555060010161367f565b5090565b90565b60008060008414156136b357600091506136d5565b82840290508284828115156136c457fe5b041415156136d157600080fd5b8091505b50929150505600a165627a7a72305820290775c6b2b7ccab5a8287cdd672c919bd2f377209713b7e6bbd591b80854abb0029",
  "source": "pragma solidity ^0.4.24;\n\nimport \"./SafeMath.sol\";\n\ncontract ERC20d {\n\n    using SafeMath for uint;\n\n    bytes32 constant POS = 0x506f736974697665000000000000000000000000000000000000000000000000;\n    bytes32 constant NEU = 0x4e65757472616c00000000000000000000000000000000000000000000000000;\n    bytes32 constant NEG = 0x4e65676174697665000000000000000000000000000000000000000000000000;\n\n    struct _delegate {\n        bytes32 _delegationIdentity;\n        bytes32 _positiveVotes;\n        bytes32 _negativeVotes;\n        bytes32 _neutralVotes;\n        bytes32 _totalEvents;\n        bytes32 _totalVotes;\n        bytes32 _trustLevel;\n    }\n\n    mapping (address => mapping (address => uint)) private _allowed;\n    mapping (address => uint) private _balances;\n\n    mapping (bytes => _delegate) private _stats;\n    mapping (bytes => address) private _wallet;\n    mapping (address => bool) private _active;\n    mapping (address => bool) private _stake;\n    mapping (address => bytes) private _vID;\n    mapping (bytes => uint) private _trust;\n    mapping (bytes => bool) private _voted;\n\n    address private _founder = msg.sender;\n    address private _admin = address(0x0);\n\n    uint private _totalSupply;\n    uint private _maxSupply;\n    uint private _decimals;\n\n    string private _name;\n    string private _symbol;\n\n    modifier _stakeCheck(address _from , address _to) {\n        require(!isStaking(_from) && !isStaking(_to));\n        _;\n    }\n\n    modifier _verifyID(address _account) {\n        if(!isActive(_account)) {\n            createID(_account);\n        }\n        _;\n    }\n\n    modifier _trustLimit(bytes _id) {\n        require(_trust[_id] < block.number);\n        _;\n    }\n\n    modifier _onlyAdmin() {\n        require(msg.sender == _admin);\n        _;\n    }\n\n    modifier _onlyFounder() {\n        require(msg.sender == _founder);\n        _;\n    }\n\n    constructor() public {\n        // 50,600,000,000 VLDY - Max supply\n        // 48,070,000,000 VLDY - Initial supply\n        //  2,530,000,000 VLDY - Delegation supply\n        uint genesis = uint(48070000000).mul(10**uint(18));\n        _maxSupply = uint(50600000000).mul(10**uint(18));\n        _mint(_founder, genesis);\n        _name = \"Validity\";\n        _symbol = \"VLDY\";\n        _decimals = 18;\n    }\n\n    function toggleStake() public {\n        require(!isVoted(getvID(msg.sender)));\n        require(isActive(msg.sender));\n\n        _stake[msg.sender] = !_stake[msg.sender];\n        emit Stake(msg.sender);\n    }\n\n    function setIdentity(bytes32 _identity) public {\n        require(isActive(msg.sender));\n\n        _stats[getvID(msg.sender)]._delegationIdentity = _identity;\n    }\n\n    function name() public view returns (string) {\n        return _name;\n    }\n\n    function symbol() public view returns (string) {\n        return _symbol;\n    }\n\n    function decimals() public view returns (uint) {\n        return _decimals;\n    }\n\n    function maxSupply() public view returns (uint) {\n        return _maxSupply;\n    }\n\n    function totalSupply() public view returns (uint) {\n        return _totalSupply;\n    }\n\n    function isVoted(bytes _id)  public view returns (bool) {\n        return _voted[_id];\n    }\n\n    function isActive(address _account)  public view returns (bool) {\n        return _active[_account];\n    }\n\n    function isStaking(address _account)  public view returns (bool) {\n        return _stake[_account];\n    }\n\n    function balanceOf(address _owner) public view returns (uint) {\n        return _balances[_owner];\n    }\n\n    function getvID(address _account) public view returns (bytes) {\n        return _vID[_account];\n    }\n\n    function getIdentity(bytes _id) public view returns (bytes32) {\n         return _stats[_id]._delegationIdentity;\n    }\n\n    function getAddress(bytes _id) public view returns (address) {\n        return _wallet[_id];\n    }\n\n    function trustLevel(bytes _id) public view returns (uint) {\n        return uint(_stats[_id]._trustLevel);\n    }\n\n    function totalEvents(bytes _id) public view returns (uint) {\n        return uint(_stats[_id]._totalEvents);\n    }\n\n    function totalVotes(bytes _id) public view returns (uint) {\n        return uint(_stats[_id]._totalVotes);\n    }\n\n    function positiveVotes(bytes _id) public view returns (uint) {\n        return uint(_stats[_id]._positiveVotes);\n    }\n\n    function negativeVotes(bytes _id) public view returns (uint) {\n        return uint(_stats[_id]._negativeVotes);\n    }\n\n     function neutralVotes(bytes _id) public view returns (uint) {\n        return uint(_stats[_id]._neutralVotes);\n    }\n\n    function allowance(address _owner, address _spender) public view returns (uint) {\n        return _allowed[_owner][_spender];\n    }\n\n    function transfer(address _to, uint _value) public returns (bool) {\n        _transfer(msg.sender, _to, _value);\n        return true;\n    }\n\n    function approve(address _spender, uint _value) public returns (bool) {\n        require(_allowed[msg.sender][_spender] == uint(0));\n        require(_spender != address(0x0));\n\n        _allowed[msg.sender][_spender] = _value;\n        emit Approval(msg.sender, _spender, _value);\n        return true;\n    }\n\n    function _mint(address _account, uint _value) _verifyID(_account) internal {\n        require(_totalSupply.add(_value) <= _maxSupply);\n        require(_account != address(0x0));\n\n        _totalSupply = _totalSupply.add(_value);\n        _balances[_account] = _balances[_account].add(_value);\n        emit Transfer(address(0x0), _account, _value);\n    }\n\n    function transferFrom(address _from, address _to, uint _value) public returns (bool) {\n        _allowed[_from][msg.sender] = _allowed[_from][msg.sender].sub(_value);\n        _transfer(_from, _to, _value);\n        emit Approval(_from, msg.sender, _allowed[_from][msg.sender]);\n        return true;\n    }\n\n    function increaseAllowance(address _spender, uint _addedValue) public returns (bool) {\n        require(_spender != address(0x0));\n\n        _allowed[msg.sender][_spender] = _allowed[msg.sender][_spender].add(_addedValue);\n        emit Approval(msg.sender, _spender, _allowed[msg.sender][_spender]);\n        return true;\n    }\n\n    function decreaseAllowance(address _spender, uint _subtractedValue) public returns (bool) {\n        require(_spender != address(0x0));\n\n        _allowed[msg.sender][_spender] = _allowed[msg.sender][_spender].sub(_subtractedValue);\n        emit Approval(msg.sender, _spender, _allowed[msg.sender][_spender]);\n        return true;\n    }\n\n     function _transfer(address _from, address _to, uint _value) _stakeCheck(_from, _to) _verifyID(_to) internal {\n        require(_to != address(0x0));\n\n        _balances[_from] = _balances[_from].sub(_value);\n        _balances[_to] = _balances[_to].add(_value);\n        emit Transfer(_from, _to, _value);\n    }\n\n    function delegationReward(bytes _id, address _account, uint _reward) _onlyAdmin public {\n        require(isStaking(_account));\n        require(isVoted(_id));\n\n        _voted[_id] = false;\n        _stake[_account] = false;\n        _mint(_account, _reward);\n        emit Reward(_id, _reward);\n    }\n\n    function delegationEvent(bytes _id, bytes32 _subject, bytes32 _choice, uint _weight) _onlyAdmin public {\n        require(_choice == POS || _choice == NEU || _choice == NEG);\n        require(isStaking(getAddress(_id)));\n        require(!isVoted(_id));\n\n        _voted[_id] = true;\n        _delegate storage x = _stats[_id];\n        if(_choice == POS) {\n            x._positiveVotes = bytes32(positiveVotes(_id).add(_weight));\n        } else if(_choice == NEU) {\n            x._neutralVotes = bytes32(neutralVotes(_id).add(_weight));\n        } else if(_choice == NEG) {\n            x._negativeVotes = bytes32(negativeVotes(_id).add(_weight));\n        }\n        x._totalVotes = bytes32(totalVotes(_id).add(_weight));\n        x._totalEvents = bytes32(totalEvents(_id).add(1));\n        emit Vote(_id, _subject, _choice, _weight);\n    }\n\n    function delegationIdentifier(address _account) internal view returns (bytes) {\n        bytes memory stamp = bytesStamp(block.timestamp);\n        bytes32 prefix = 0x56616c6964697479;\n        bytes memory id = new bytes(32);\n        bytes32 x = bytes32(_account);\n        for(uint v = 0; v < id.length; v++){\n            uint prefixIndex = 24 + v;\n            uint timeIndex = 20 + v;\n            if(v < 8){\n                id[v] = prefix[prefixIndex];\n            } else if(v < 12){\n                id[v] = stamp[timeIndex];\n            } else {\n                id[v] = x[v];\n            }\n        }\n       return id;\n    }\n\n    function increaseTrust(bytes _id) _trustLimit(_id) _onlyAdmin public {\n        _stats[_id]._trustLevel = bytes32(trustLevel(_id).add(1));\n        _trust[_id] = block.number.add(1000);\n        emit Trust(_id, POS);\n    }\n\n    function decreaseTrust(bytes _id) _trustLimit(_id) _onlyAdmin public {\n        _stats[_id]._trustLevel = bytes32(trustLevel(_id).add(1));\n        _trust[_id] = block.number.add(1000);\n        emit Trust(_id, NEG);\n    }\n\n    function bytesStamp(uint _x) internal pure returns (bytes b) {\n        b = new bytes(32);\n        assembly {\n            mstore(add(b, 32), _x)\n        }\n    }\n\n    function adminControl(address _entity) _onlyFounder public {\n        _admin = _entity;\n    }\n\n    function createID(address _account) internal {\n         bytes memory id = delegationIdentifier(_account);\n         emit Neo(_account, id, block.number);\n         _active[_account] = true;\n         _wallet[id] = _account;\n         _vID[_account] = id;\n    }\n\n    event Approval(address indexed owner, address indexed spender, uint value);\n\n    event Transfer(address indexed from, address indexed to, uint value);\n\n    event Vote(bytes vID, bytes32 subject, bytes32 choice, uint weight);\n\n    event Neo(address indexed subject, bytes vID, uint block);\n\n    event Reward(bytes vID, uint reward);\n\n    event Trust(bytes vID, bytes32 flux);\n\n    event Stake(address indexed staker);\n\n}\n",
  "sourcePath": "/Users/sxg/Desktop/mvp/contracts/ERC20d.sol",
  "compiler": {
    "name": "solc",
    "version": "0.4.25+commit.59dbf8f1.Emscripten.clang"
  },
  "schemaVersion": "2.0.2",
  "updatedAt": "2019-04-15T14:42:36.780Z"
}